:020000040800F2
:1000000070060020290200083102000833020008AF
:10001000350200083702000839020008000000001D
:100020000000000000000000000000003B0200088B
:100030003D020008000000003F02000879040008AB
:10004000430200084302000843020008430200087C
:10005000430200084302000843020008430200086C
:10006000430200084302000843020008430200085C
:10007000430200084302000843020008430200084C
:10008000430200084302000843020008430200083C
:10009000430200084302000843020008430200082C
:1000A000430200084302000843020008430200081C
:1000B000430200084302000843020008430200080C
:1000C00043020008430200084302000843020008FC
:1000D00043020008430200084302000843020008EC
:1000E00043020008430200084302000843020008DC
:1000F00043020008430200084302000843020008CC
:1001000043020008430200084302000843020008BB
:1001100043020008430200084302000843020008AB
:10012000430200084302000843020008430200089B
:10013000430200084302000843020008430200088B
:10014000430200084302000843020008430200087B
:10015000430200084302000843020008430200086B
:10016000430200084302000843020008430200085B
:10017000430200084302000843020008430200084B
:10018000430200084302000800F002F800F03CF8C7
:100190000AA090E8000C82448344AAF10107DA45E2
:1001A00001D100F031F8AFF2090EBAE80F0013F0F8
:1001B000010F18BFFB1A43F0010318474004000069
:1001C00060040000103A24BF78C878C1FAD85207FA
:1001D00024BF30C830C144BF04680C6070470000C1
:1001E0000023002400250026103A28BF78C1FBD840
:1001F000520728BF30C148BF0B6070471FB500F0E1
:10020000F7F91FBD10B510BD00F031F81146FFF72A
:10021000F5FF00F09BF900F04FF803B4FFF7F2FF91
:1002200003BC00F053F80000094880470948004724
:10023000FEE7FEE7FEE7FEE7FEE7FEE7FEE7FEE796
:10024000FEE7FEE704480549054A064B70470000F3
:10025000E5040008890100087000002070060020F5
:10026000700200207002002070477047704775468A
:1002700000F028F8AE4605006946534620F0070016
:10028000854618B020B5FFF7DDFFBDE820404FF0F0
:1002900000064FF000074FF000084FF0000B21F070
:1002A0000701AC46ACE8C009ACE8C009ACE8C0093D
:1002B000ACE8C0098D4670470446AFF30080204685
:1002C000FFF7ABFF004870470C00002001491820E1
:1002D000ABBEFEE7260002007047F0B50A460021DB
:1002E0000023002400BF3DE0012505FA01F3156855
:1002F00005EA03049C4234D105684F000326BE4042
:10030000B543056015794E00B54006683543056074
:100310001579012D02D01579022D16D185684F006F
:100320000326BE40B543856055794E00B5408668CA
:1003300035438560456801268E40B5434560456874
:1003400096798E40B6B235434560C5684F000326A6
:10035000BE40B543C560D5794E00B540C66835434B
:10036000C560491C1029BFD3F0BD000029B1064A61
:1003700012680243044B1A6004E0034A1268824385
:10038000014B1A6070470000303802400CB5002065
:10039000019000903448006840F480303249086091
:1003A00000BF3148006800F4003000900198401C04
:1003B0000190009818B90198B0F5A04FF1D12A48E2
:1003C000006800F4003010B10120009001E000202E
:1003D00000900098012846D123484030006840F042
:1003E00080502149403108602048006840F4404076
:1003F0001E4908601C48083000681B490831086025
:100400000846006840F4004008600846006840F470
:10041000A05008601648091F0860081F006840F0D7
:100420008070091F086000BF0F48006800F000706E
:100430000028F9D040F205700E4908600A480830DB
:10044000006820F003000849083108600846006889
:1004500040F00200086000BF03480830006800F068
:100460000C000828F8D10CBD003802400070004094
:1004700008544007003C024015480068401C1449DD
:1004800008600846006840F6980188421FD311486A
:10049000006880F001001049C1F8A4020846D0F8B5
:1004A000A80280F00100C1F8A8020C48D0F8B402FC
:1004B00080F001000949C1F8B4020846D0F8B8023A
:1004C00080F001000649086000200149086070477B
:1004D00008000020A48242420080424200004242C2
:1004E000B802424210B51548006840F47000134944
:1004F00008601348006840F00100114908600020BE
:100500000F49083108600E4800680E4908400C4940
:1005100008600D48091D0860081F006820F480204D
:10052000091F0860002006490C310860FFF72EFF04
:100530004FF0006001498039086010BD88ED00E08F
:1005400000380240FFFFF6FE103000240121202079
:10055000FFF70CFF01211020FFF708FF01201E49C3
:1005600008714FF4C0600860002088714871C8713C
:100570001A48FFF7B2FE0120174908714FF4C04036
:100580000860002088714871C8711548FFF7A5FE02
:100590001449481EB0F1807F00D31BE0481E4FF085
:1005A000E022506150170F22002807DA13071D0EB2
:1005B0000D4B00F00F04241F1D5503E013071C0E04
:1005C0000A4B1C5400BF00204FF0E022906107202E
:1005D000106100BF00BFFEE70000002000140240D1
:1005E000001002403F90020018ED00E000E400E03F
:1005F0004FF04070E1EE100A704700001C06000842
:10060000000000200C000000C401000828060008BB
:100610000C00002064060000E0010008000000005B
:080620000000000000000000D2
:0400000508000229C4
:00000001FF
