:020000040800F2
:1000000000070020490200085102000853020008BE
:1000100055020008570200085902000800000000BD
:100020000000000000000000000000005B0200086B
:100030005D020008000000005F0200086102000885
:1000400063020008630200086302000863020008FC
:1000500063020008630200086302000863020008EC
:1000600063020008630200086302000863020008DC
:1000700063020008630200086302000863020008CC
:1000800063020008630200086302000863020008BC
:1000900063020008630200086302000863020008AC
:1000A000630200086302000863020008630200089C
:1000B000630200086302000863020008630200088C
:1000C000630200086302000863020008630200087C
:1000D00063020008410C000863020008950C000848
:1000E000630200086302000863020008630200085C
:1000F000630200086302000863020008630200084C
:10010000630200086302000863020008630200083B
:10011000630200086302000863020008630200082B
:10012000630200086302000863020008630200081B
:10013000630200086302000863020008630200080B
:1001400063020008630200086302000863020008FB
:1001500063020008630200086302000863020008EB
:1001600063020008630200086302000863020008DB
:1001700063020008630200086302000863020008CB
:10018000630200086302000800F002F800F04DF876
:100190000AA090E8000C82448344AAF10107DA45E2
:1001A00001D100F042F8AFF2090EBAE80F0013F0E7
:1001B000010F18BFFB1A43F001031847EC110000B0
:1001C0000C120000103A24BF78C878C1FAD8520740
:1001D00024BF30C830C144BF04680C6070470000C1
:1001E0000023002400250026103A28BF78C1FBD840
:1001F000520728BF30C148BF0B607047642900F028
:10020000AD80732900F0A581002070471FB501F073
:10021000C5F800F0C9FA04000020002101F0A8F898
:10022000401C60601FBD10B510BD00F098FA11466B
:10023000FFF7ECFF00F00EFF00F0C8FA03B4FFF781
:10024000F2FF03BC00F008FB09488047094800475B
:10025000FEE7FEE7FEE7FEE7FEE7FEE7FEE7FEE776
:10026000FEE7FEE704480549054A064B70470000D3
:10027000F10A0008890100080001002000070020A1
:1002800000030020000300200FB4044910B503AAA6
:10029000029800F063F910BC5DF814FB1400002014
:1002A0002DE9F0410E460446002020622046E16818
:1002B000884730B3252805D0D4E901219047206A2A
:1002C000401CF2E7E168204600278847050018D067
:1002D000A5F14100192802D820354FF400673246B5
:1002E000294620462760FFF789FF40B1012804D046
:1002F000F61D26F007060836D8E7361DD6E728464D
:10030000DAE7206ABDE8F08170B50C460546012A9F
:1003100005D02878800600D5EA69002302E0012391
:1003200005E05B1C934202D2E05C0028F9D1A86989
:10033000E618C01AA861286A184428622846AFF354
:10034000008004E0D5E9012114F8010B9047B44284
:10035000F8D32846AFF3008070BD00002DE9F041CE
:100360000646002410687529314616A510D0AFF353
:100370000080002802DA404213A507E031688A07AE
:1003800001D512A502E0490704D511A5012401E019
:10039000AFF3008000210A2206F1240709E0B0FB38
:1003A000F2FCB0FBF2F302FB1C003030785418462C
:1003B000491C0028F3D123462A463046BDE8F041C7
:1003C00000F05CB8000000002D0000002B000000D1
:1003D0002000000070B5064600F04CF804680546A1
:1003E00030460A22002100F0CBF82C6070BD0000DE
:1003F000014A00F0FDB800002800002030B5054695
:100400000B462A4613F8014B12F8010B08B1A04223
:10041000F8D01CB1002802D06D1CF1E7284630BD91
:100420004FF0000200B5134694469646203922BF8D
:10043000A0E80C50A0E80C50B1F12001BFF4F7AFD8
:10044000090728BFA0E80C5048BF0CC05DF804EBBA
:10045000890028BF40F8042B08BF704748BF20F828
:10046000022B11F0804F18BF00F8012B7047704726
:1004700070477047004870479C0000202DE9F04706
:100480000D4699469246044600F124080168880604
:1004900004D5E06921F01001216000E00120A842AC
:1004A00001DD471B00E00027A1697A1902EB090072
:1004B000081AA0612078C00602D42046AFF300805D
:1004C000002608E0D4E901211AF806009047206AC6
:1004D000401C761C20624E45F4DB2078C0060AD50D
:1004E0002046AFF3008006E0D4E901213020904798
:1004F000206A401C2062381EA7F10107F4DC07E0E7
:10050000D4E9012118F805009047206A401C2062B8
:10051000281EA5F10105F3DC2046AFF3008020780A
:10052000000602D50220BDE8F0870120FBE710B5E8
:10053000436913B1AFF3008001E0FFF7E5FE01204E
:1005400010BD127800F124010A7000224A700122C5
:10055000EDE711684FF0FF32E9E70000074B70B597
:100560000D467B4400F077F80446284600F0D5F8A5
:1005700010B14FF0FF3070BD204670BDCB0A0000B7
:100580002DE9F04791460F4680460446002614F8B0
:10059000015B2DB100F052F80068405DC007F6D154
:1005A0002B2D02D02D2D18D0641E4A4639462046E8
:1005B00000F064F827B13968A14201D1C7F8008082
:1005C0004FF0020471050BD54042002803DDFFF710
:1005D00051FF0460A007BDE8F08746F48066E4E7B9
:1005E0000028F8DAFFF746FF04606FF00040F2E7FA
:1005F0002DE9F04115460E46040002D12C6804B9DD
:100600000BA4204600F09DF80444207870B12746E2
:100610003146384600F085F80444207810B10020B7
:1006200004F8010B38462C60BDE8F0810027F9E79B
:1006300000000000004870479C00002010B500F04A
:10064000B3F8001D10BD00BF290D000001694A1C50
:1006500002610878704700B58FB0CDE90131002103
:10066000059105497944CDE9031011466846FFF725
:1006700017FE0FB000BD0000E5FFFFFF2DE9F05FA2
:10068000824615468B4600270AF10104B9460078D8
:10069000302801D09DB113E014F8010B0127782810
:1006A00003D0582801D045B10AE00DB1102D07D173
:1006B000002714F8010B102502E0082500E00A25A8
:1006C0000026B0460EE005FB080005FB06F10127F9
:1006D0001FFA80F801EB1046B6F5803F00D3B9460B
:1006E00014F8010B294600F063F80028EBDABBF19F
:1006F000000F05D00FB1641E00E05446CBF8004057
:10070000B9F1000F06D0FFF7B5FE02210160C81E47
:10071000BDE8F09F48EA0640FAE7007B00F0800061
:10072000704730B503461D781DB10A4603E0AC4260
:1007300001D1181A30BD12F8014B002CF7D15B1C07
:10074000F1E730B503461D783DB10A4612F8014B7A
:100750001CB1AC42FAD15B1CF5E7181A30BD7546E6
:10076000FFF768FFAE4605006946534620F00700D4
:10077000854618B020B5FFF775FDBDE820404FF065
:1007800000064FF000074FF000084FF0000B21F07B
:100790000701AC46ACE8C009ACE8C009ACE8C00948
:1007A000ACE8C0098D46704700487047BC00002087
:1007B0003A2800D2303820F02002412A01D3A2F199
:1007C0003700884201D34FF0FF3070470446AFF343
:1007D00000802046FFF732FD4FF0013C50F8042B1B
:1007E00051F8043B9A4221D1A2EB0C03934313EA44
:1007F000CC1317D150F8042B51F8043B9A4215D171
:10080000A2EB0C03934313EACC130BD150F8042B47
:1008100051F8043B9A4209D1A2EB0C03934313EA2B
:10082000CC13DBD04FF00000704700BFD01A01BAE4
:10083000B1FA81F101F0180122FA01F0CB40C1F1C7
:100840002001DBB2C0B2C01A2CFA01F3D11A9143D5
:1008500011EAC311E6D1704701491820ABBEFEE78B
:10086000260002007047F0B5002201274FF0030C6C
:100870000B6807FA02F52B40AB422CD106685300F7
:100880000CFA03F4A64306600E79D0F800E09E400F
:1008900046EA0E0606600E79012E01D0022E12D114
:1008A0008668A64386604E79D0F808E09E4046EA06
:1008B0000E0686604668AE43466045688E7996406F
:1008C000B6B235434560C568A543C560CC799C4048
:1008D000C3681C43C460521C102AC9D3F0BD4B0727
:1008E000DB0E9A40C90810B500EB8100016A0F24A5
:1008F0009C40A1430162016A1143016210BD0000E6
:1009000030B50F23C27801780125FAB1144A126874
:1009100001F1E02102F4E062C2F5E062C2F30722D5
:10092000C2F10404D3404278A24084781C401443AE
:10093000220181F80024007800F01F018D40400959
:10094000800000F1E020C0F8005130BD01F01F0030
:1009500085404809800000F1E020C0F8805130BD9A
:100960000CED00E0044A0029116801D0014300E0C9
:10097000814311607047000030380240044A00296A
:10098000116801D0014300E081431160704700000D
:1009900040380240044A0029116801D0014300E0B8
:1009A00081431160704700004438024070B5204B0D
:1009B0001968204C11F00C0104D06610042903D0F2
:1009C000082903D004601BE0066019E0184A121FD2
:1009D0001168C1F38055116801F03F0115B1B6FBF4
:1009E000F1F101E0B4FBF1F114681268C4F388146A
:1009F0006143C2F30142521C5200B1FBF2F10160AB
:100A000019680F2202EA11110B4A545C0168E14097
:100A100041601C68072505EA9424145D21FA04F45A
:100A200084601B6805EA5333D25CD140C16070BD5D
:100A3000083802400024F400180000200CB5002201
:100A4000274900920192086840F4803008604FF412
:100A5000A043086800F4003001900098401C00900A
:100A6000019810B900989842F3D10868800334D5F2
:100A7000012001901A484030026842F08052026022
:100A80001848026842F44042026015480830026883
:100A90000260026842F400420260026842F4A0521E
:100AA0000260031F104A1A600A6842F080720A60EE
:100AB0000A689201FCD50D4940F205720A6001688E
:100AC00021F003010160016841F002010160016849
:100AD000C1F381010229FAD10CBD01920CBD0000C5
:100AE000003802400070004008544007003C0240BB
:100AF000124810B5016841F47001016010480168A6
:100B000041F0010101600E4A0021083211600268C3
:100B10000C4B1A400260031D0B4A1A60026822F453
:100B20008022026006480C300160FFF787FF03490E
:100B30004FF000608039086010BD000088ED00E0D3
:100B400000380240FFFFF6FE103000240029018823
:100B500002D041F0010101E021F001010180704764
:100B600030B5028C22F001020284028C8388048B4F
:100B700022F0020224F073050C882C438D89154362
:100B80004A882A430C4DA84202D00C4DA8420DD1F0
:100B900022F00805CA8923F440732A4322F0040591
:100BA0008A882A430D8A1D434B8A2B438380048302
:100BB00089684163028430BD0000014000040140A7
:100BC0004163704730B50288164C174DA0420DD0D6
:100BD000A8420BD0B0F1804F08D0144B984205D0FA
:100BE000134B984202D0134B984203D122F070036A
:100BF0004A881A43104B984206D0104B984203D0B3
:100C000022F440730A891A4302804A68C2620A8841
:100C10000285A04201D0A84201D1897A0186012132
:100C2000818230BD0000014000040140000400400A
:100C300000080040000C004000100040001400407C
:100C400070B5114C40F225552946204600F067F852
:100C5000012817D1204600F0EFF80D4BC2B20B4827
:100C6000196842541868401C1860232A02D018687A
:100C7000402801D30120586029462046BDE8704035
:100C800000F036B870BD0000001001402C000020BC
:100C90000000002070B5134D40F22556314628461D
:100CA00000F03DF801281CD1284600F0C5F8C4B278
:100CB0000D49302C02D0612C02D004E0002000E06D
:100CC0000120C1F8A4022146084800F0B9F82146E5
:100CD000284600F0B5F831462846BDE8704000F0DF
:100CE00007B870BD0048004000804242001001403B
:100CF0000A0A01219140C943018070470029818976
:100D000002D041F4005101E021F40051818170478B
:100D10000246002012880A4200D00120704770B5B8
:100D200001F01F0501260024C1F3421306FA05F263
:100D3000012B0FD0022B0FD0838A4FEA112100889C
:100D4000134206FA01F600EA060001D000B10124C0
:100D5000204670BD8389F0E7038AEEE710B5C1F342
:100D6000421301F01F040121A140012B07D0022BE7
:100D700007D01430002A026805D00A4304E00C3082
:100D8000F8E71030F6E78A43026010BD7FB50446ED
:100D9000008A0D46C98820F4405001432182A08971
:100DA00041F20C618843A9882A8911436A89024368
:100DB0001143A181A08A20F44071A8890843A08230
:100DC0006846FFF7F3FD1A48844202D0194884426E
:100DD00001D1039800E00298A189090400EBC00149
:100DE00001EB0010296801D5490000E08900B0FB43
:100DF000F1F06422B0FBF2F109010B096FF0180564
:100E00006B4300EB8300A3891D044FF0320306D52A
:100E100003EBC000B0FBF2F000F0070005E003EBCD
:100E20000010B0FBF2F000F00F00084320817FBDFE
:100E300000100140001401408088C0F30800704792
:100E4000C1F308018180704730B500234FF0E021E5
:100E500045F20724012505E04C618B610D610A69AB
:100E6000D203FCD5401E0B61F6D230BD4FF0E0211D
:100E700000220A61C0EBC00000EB40004B1703EBFF
:100E8000C00048618A61052008610869C003FCD57B
:100E90000A61704710B501214020FFF763FD094842
:100EA00001246102047101608471032141710021F8
:100EB000C17101460448FFF7D6FC0448C0F8A442BB
:100EC00010BD00000C00002000180240000043424A
:100ED0002DE9F05F534D4FF0010A4FF4007B85F888
:100EE00004A08046C5F800B085F806A003200024C1
:100EF000687157462646EC7129464B48FFF7B3FC0C
:100F0000DFF82891C9F8A4621220FFF79DFFC9F805
:100F1000A4721E20FFF7AAFF2E710320C5F800B0AF
:100F20006871EE7129464048FFF79DFC4FF47A66E0
:100F30004D4609E00120641CFFF798FFB44203D33B
:100F40004FF0FF30BDE8F09FD5F824020028F1D122
:100F5000002408E00120FFF789FF641C642C02D301
:100F60006FF00100EEE7D5F824020028F2D000244B
:100F700008E00120FFF77AFF641C642C02D36FF0B5
:100F80000200DFE7D5F824020028F2D10027A946A5
:100F900000260725002408E00120FFF767FF641CF6
:100FA000642C02D36FF00300CCE7D9F824020028A8
:100FB000F2D02820FFF75AFFD9F8240290B10AFA9C
:100FC00005F03043C6B2002408E00120FFF74EFFD1
:100FD000641C642C02D36FF00400B3E7D9F8240238
:100FE0000028F2D16D1ED5D508F807607F1C052FAB
:100FF000CEDB3220FFF73AFF98F8001098F8010096
:1010000098F80220014498F803001044084498F826
:101010000410C0B2814202D06FF0050092E70020B8
:1010200090E700000C00002000180240000043423E
:1010300070B5074D044640212846FFF769FE002899
:10104000F9D0A1B22846FFF7FBFE204670BD000094
:10105000001001401CB501212020FFF783FC41480E
:1010600002210026017109020160867146713E4C21
:10107000C67101462046FFF7F6FB092211462046BD
:10108000FFF72DFC39490120C1F8A40200F0ACF8AB
:10109000FFF700FF4FF4E13000F0CEF84FF41650A8
:1010A00000F018F96420FFF7CFFE31A0FFF7ECF84D
:1010B0002C4D0C3D68680028FCD033A13448FFF764
:1010C0009DF9F0B133A13248FFF792F9010042D007
:1010D00031A0FFF7D9F82FA10020FFF789F904000C
:1010E00039D001462CA0FFF7CFF82046FFF772F960
:1010F000044601462A48FFF763FD214629A0FFF771
:10110000C3F82DA12248FFF779F978B16846FFF7B7
:10111000DFFE010003D52AA0FFF7B6F806E09DF830
:1011200003209DF802102CA0FFF7AEF82CA1184860
:10113000FFF764F978B16846FFF7CAFE010003D5EE
:101140001FA0FFF7A1F806E09DF801209DF8001010
:1011500021A0FFF799F86E602E6040210C48FFF740
:101160005FF9A7E70C000020001402400080424213
:101170005468697320697320626C65206578332038
:10118000746573740D0A00006475747900000000C2
:101190002C0000203D000000703D25730D0A00006A
:1011A00000200040647574792073657420256420E4
:1011B0006F6B0D0A0000000074656D703F23000026
:1011C00064687431312072656164206572726F7277
:1011D0002025640D0A00000025642E25640D0A00F8
:1011E00068756D693F23000070B501210802FFF7A3
:1011F000C5FB0F4863210024416042F2CF0101800A
:101200000C4D448001462846FFF7DCFC084960206D
:101210000C31088001204880642088608C81284639
:10122000FFF79EFC2846BDE870400121FFF78EBC09
:101230007C0000200020004070B5054601211020F0
:10124000FFF7A8FB01210846FFF78CFB1D49022090
:10125000002408714FF4C06008608C71032048714D
:10126000194ECC713046FFF7FEFA072209213046AD
:10127000FFF735FB07220A213046FFF730FB134901
:101280000C200D608C80CC800C818C81104D4881AD
:101290002846FFF77BFD012240F225512846FFF743
:1012A0005DFD08492520091F08704C708C700120D5
:1012B000C8700846FFF724FB2846BDE870400121AE
:1012C000FFF71CBD0C000020000002406C00002055
:1012D0000010014070B5054601218804FFF74EFB60
:1012E00001210220FFF73EFB1D4902200024087166
:1012F0004FF4406008608C7103204871194ECC7126
:101300003046FFF7B0FA07220A213046FFF7E7FA26
:1013100007220B213046FFF7E2FA13490C200D603B
:101320008C80CC800C818C81104D48812846FFF741
:101330002DFD012240F225512846FFF70FFD0849F7
:101340002720091F08704C708C700120C870084657
:10135000FFF7D6FA2846BDE870400121FFF7CEBC62
:101360000C000020000402406C00002000480040F7
:1013700010B500290AD00878002807D0054878441D
:10138000FFF72AFA002801D0002010BD0248784457
:1013900010BD00004A000000420000004FF0407005
:1013A000E1EE100A70470000D81400080000002089
:1013B0002C000000C4010008041500082C000020C7
:1013C000D4060000E0010008100100004300000006
:1013D000F8FFFFFF00404040404040404040414156
:1013E00041414140404040404040404040404040FA
:1013F0004040404040050202020202020202020294
:101400000202020202202020202020202020200290
:101410000202020202029090909090901010101020
:1014200010101010101010101010101010101010BC
:101430000202020202028888888888880808080850
:10144000080808080808080808080808080808081C
:101450000202020240000000000000000000000044
:10146000000000000000000000000000000000007C
:10147000000000000000000000000000000000006C
:10148000000000000000000000000000000000005C
:10149000000000000000000000000000000000004C
:1014A000000000000000000000000000000000003C
:1014B000000000000000000000000000000000002C
:1014C000000000000000000000000000000000001C
:1014D000000000000000000000000000000000000C
:1014E00000000000000000000000000000000000FC
:1014F00000000000010203040102030406070809BA
:0415000000000000E7
:0400000508000249A4
:00000001FF
