:020000040800F2
:1000000078060020290200083102000833020008A7
:10001000350200083702000839020008000000001D
:100020000000000000000000000000003B0200088B
:100030003D020008000000003F02000841020008E5
:10004000430200084302000843020008430200087C
:10005000430200084302000843020008430200086C
:10006000430200084302000843020008430200085C
:10007000430200084302000843020008430200084C
:10008000430200084302000843020008430200083C
:10009000430200084302000843020008430200082C
:1000A00043020008990500084302000843020008C3
:1000B000CD050008FD0500084302000843020008C2
:1000C00043020008430200084302000843020008FC
:1000D00043020008430200084302000843020008EC
:1000E00043020008430200084302000843020008DC
:1000F00031060008430200084302000843020008DA
:1001000043020008430200084302000843020008BB
:1001100043020008430200084302000843020008AB
:10012000430200084302000843020008430200089B
:10013000430200084302000843020008430200088B
:10014000430200084302000843020008430200087B
:10015000430200084302000843020008430200086B
:10016000430200084302000843020008430200085B
:10017000430200084302000843020008430200084B
:10018000430200084302000800F002F800F03CF8C7
:100190000AA090E8000C82448344AAF10107DA45E2
:1001A00001D100F031F8AFF2090EBAE80F0013F0F8
:1001B000010F18BFFB1A43F0010318475007000056
:1001C00070070000103A24BF78C878C1FAD85207E7
:1001D00024BF30C830C144BF04680C6070470000C1
:1001E0000023002400250026103A28BF78C1FBD840
:1001F000520728BF30C148BF0B6070471FB500F0E1
:100200007FFB1FBD10B510BD00F031F81146FFF7A0
:10021000F5FF00F093FA00F04FF803B4FFF7F2FF98
:1002200003BC00F053F80000094880470948004724
:10023000FEE7FEE7FEE7FEE7FEE7FEE7FEE7FEE796
:10024000FEE7FEE704480549054A064B70470000F3
:100250003105000889010008780000207806002098
:10026000780200207802002070477047704775467A
:1002700000F028F8AE4605006946534620F0070016
:10028000854618B020B5FFF7DDFFBDE820404FF0F0
:1002900000064FF000074FF000084FF0000B21F070
:1002A0000701AC46ACE8C009ACE8C009ACE8C0093D
:1002B000ACE8C0098D4670470446AFF30080204685
:1002C000FFF7ABFF004870471800002001491820D5
:1002D000ABBEFEE7260002007047F0B50A460021DB
:1002E0000023002400BF3DE0012505FA01F3156855
:1002F00005EA03049C4234D105684F000326BE4042
:10030000B543056015794E00B54006683543056074
:100310001579012D02D01579022D16D185684F006F
:100320000326BE40B543856055794E00B5408668CA
:1003300035438560456801268E40B5434560456874
:1003400096798E40B6B235434560C5684F000326A6
:10035000BE40B543C560D5794E00B540C66835434B
:10036000C560491C1029BFD3F0BD000070B5002145
:1003700000230F22C4781CB3174C246804F4E064F3
:10038000C4F5E064C4F30721C1F10404E3B20A41F7
:1003900044789C40E1B28478144021430C07210E3C
:1003A0000E4C05786155047804F01F050124AC401B
:1003B00005786D11AD0005F1E025C5F8004109E0B3
:1003C000047804F01F050124AC40054D0678761131
:1003D00045F8264070BD00000CED00E000E400E0B0
:1003E00080E100E029B1064A12680243044B1A601A
:1003F00004E0034A12688243014B1A607047000010
:100400003038024029B1064A12680243044B1A6090
:1004100004E0034A12688243014B1A6070470000EF
:100420004038024029B1064A12680243044B1A6060
:1004300004E0034A12688243014B1A6070470000CF
:10044000443802400CB50020019000903448006808
:1004500040F480303249086000BF3148006800F441
:10046000003000900198401C0190009818B9019844
:10047000B0F5A04FF1D12A48006800F4003010B167
:100480000120009001E0002000900098012846D152
:1004900023484030006840F08050214940310860D6
:1004A0002048006840F440401E4908601C4808305D
:1004B00000681B49083108600846006840F40040A5
:1004C00008600846006840F4A05008601648091FFC
:1004D0000860081F006840F08070091F086000BFB6
:1004E0000F48006800F000700028F9D040F2057055
:1004F0000E4908600A480830006820F003000849E7
:10050000083108600846006840F00200086000BF3B
:1005100003480830006800F00C000828F8D10CBD32
:10052000003802400070004008544007003C024080
:1005300010B51548006840F470001349086013486E
:10054000006840F001001149086000200F4908319F
:1005500008600E4800680E4908400C4908600D48C4
:10056000091D0860081F006820F48020091F08602A
:10057000002006490C310860FFF764FF4FF000606F
:1005800001498039086010BD88ED00E00038024064
:10059000FFFFF6FE1030002410B50121084800F0DE
:1005A00070F801280AD10748006880F00100064968
:1005B000C1F8A4020121024800F054F810BD000067
:1005C00000000140A48242420080424210B5012155
:1005D000880700F056F801280AD10648006880F024
:1005E00001000549C1F8A8020121880700F03AF886
:1005F00010BD0000A88242420080424210B5012195
:10060000084800F03EF801280AD10748006880F049
:1006100001000649C1F8B4020121024800F022F8A5
:1006200010BD000000040040B402424200004242FB
:1006300010B50121084800F024F801280AD1074824
:10064000006880F001000649C1F8B80201210248A3
:1006500000F008F810BD000000040140B80242425A
:1006600000004242CA430282704721B1028842F030
:100670000102028004E002884FF6FE731A400280F5
:10068000704730B50246002000230024158A05EA91
:100690000103958905EA010413B10CB1012000E0C2
:1006A000002030BD1AB183890B43838102E0838926
:1006B0008B4383817047000000220288184B9842C8
:1006C0000ED0184B98420BD0B0F1804F08D0164B8B
:1006D000984205D0154B984202D0154B984204D150
:1006E0004FF68F731A404B881A43124B984207D02B
:1006F000114B984204D04FF6FF431A400B891A431E
:1007000002804B68C3620B880385054B984202D078
:10071000044B984201D18B7A038601238382704770
:1007200000000140000401400004004000080040B7
:10073000000C004000100040001400400121202067
:10074000FFF750FE01211020FFF74CFE0120114958
:1007500008714FF4C0600860002088714871C8714A
:100760000D48FFF7BAFD01200A4908714FF4C04057
:100770000860002088714871C8710848FFF7ADFD16
:1007800000F00EF800F064F800F036F800F08CF895
:1007900000BFFEE7000000200014024000100240ED
:1007A00010B501210846FFF73DFE40F2E7300F4942
:1007B000486044F29F100880002048800C48FFF7F2
:1007C0007BFF012211460A48FFF76CFF19200949F7
:1007D00008700020487001208870C8700846FFF734
:1007E000C5FD01210248FFF740FF10BD0C000020AD
:1007F000000001400800002010B501210846FFF765
:1008000001FE40F2CF701049486042F2CF000880EC
:10081000002048804FF08040FFF74EFF0122114634
:100820009007FFF73FFF1C20084908700020487020
:1008300001208870C8700846FFF798FD01218807DD
:10084000FFF713FF10BD00000C000020080000207F
:1008500010B501210220FFF7D5FD41F287300F4985
:10086000486042F2CF000880002048800C48FFF723
:1008700023FF012211460A48FFF714FF1D200949F2
:1008800008700020487001208870C8700846FFF783
:100890006DFD01210248FFF7E8FE10BD0C000020AD
:1008A000000400400800002010B501210220FFF7DD
:1008B000B9FD49F63F400F49486044F29F10088057
:1008C000002048800C48FFF7F7FE012211460A4835
:1008D000FFF7E8FE2C20094908700020487001202D
:1008E0008870C8700846FFF741FD01210248FFF7F4
:1008F000BCFE10BD0C0000200004014008000020D8
:100900004FF04070E1EE100A704700002C0900081B
:10091000000000200C000000C40100083809000895
:100920000C0000206C060000E00100080000000040
:080930000000000000000000BF
:0400000508000229C4
:00000001FF
