:020000040800F2
:10000000B806002031020008390200083B0200084F
:100010003D0200083F020008410200080000000005
:100020000000000000000000000000004302000883
:1000300045020008000000004702000849020008CD
:100040004B0200084B0200084B020008350E000866
:100050004B0200084B0200084B0200084B0200084C
:100060004B0200084B0200084B0200084B0200083C
:100070004B0200084B0200084B0200084B0200082C
:100080004B0200084B0200084B0200084B0200081C
:100090004B0200084B0200084B0200084B0200080C
:1000A0004B0200084B0200084B0200084B020008FC
:1000B0004B0200084B0200084B0200084B020008EC
:1000C0004B0200084B0200084B0200084B020008DC
:1000D0004B020008E91000084B0200084B02000820
:1000E0004B0200084B0200084B0200084B020008BC
:1000F0004B0200084B0200084B0200084B020008AC
:100100004B0200084B0200084B0200084B0200089B
:100110004B0200084B0200084B0200084B0200088B
:100120004B0200084B0200084B0200084B0200087B
:100130004B0200084B0200084B0200084B0200086B
:100140004B0200084B0200084B0200084B0200085B
:100150004B0200084B0200084B0200084B0200084B
:100160004B0200084B0200084B0200084B0200083B
:100170004B0200084B0200084B0200084B0200082B
:100180004B0200084B02000800F002F800F041F8B2
:100190000AA090E8000C82448344AAF10107DA45E2
:1001A00001D100F036F8AFF2090EBAE80F0013F0F3
:1001B000010F18BFFB1A43F0010318470415000094
:1001C00024150000103A24BF78C878C1FAD8520725
:1001D00024BF30C830C144BF04680C6070470000C1
:1001E0000023002400250026103A28BF78C1FBD840
:1001F000520728BF30C148BF0B607047782900F014
:100200006B80002070471FB501F038FA1FBD10B594
:1002100010BD00F0B3F91146FFF7F5FF01F07CF8CF
:1002200000F0D1F903B4FFF7F2FF03BC00F0D6F9F8
:100230000948804709480047FEE7FEE7FEE7FEE77A
:10024000FEE7FEE7FEE7FEE7FEE7FEE704480549B6
:10025000054A064B7047000081100008890100081C
:10026000B8000020B8060020B8020020B802002024
:100270000FB4044910B503AA029800F051F910BC5C
:100280005DF814FB0C00002070B504468569006819
:10029000C10601D5302600E02026C00707D070BD7A
:1002A000D4E9012130469047206A401C20626D1E2F
:1002B000F6D570BD70B5044685690078C00707D1D2
:1002C00070BDD4E9012120209047206A401C2062A3
:1002D0006D1EF6D570BD000070B504460D46214672
:1002E0001068AFF300802188090502D50F4A7A44CF
:1002F00002E00E4A7A440E32002104F1240305E0A4
:1003000000F00F060009965D5E54491C0028F7D1E5
:1003100020780023000704D5702D02D009B10223F4
:1003200011322046BDE8704000F0A1B894130000DF
:100330002DE9F05F894604464FF0000ADFF824B14A
:10034000FB44C0F820A02046E168884700287DD003
:10035000252806D0D4E901219047206A401C20625C
:10036000F1E700255F462046E168884720280646D9
:1003700007DB312E05D2B81910F8200C08B105435F
:10038000F1E7A80701D525F00405C4F81CA0002753
:10039000C4F818A02A2E09D0304600F0A4FF38B3C4
:1003A00004EB8708303EC8F8186019E059F8041BC0
:1003B000204604EB87029161E1688847012F0646D9
:1003C00018D1E069002820DA25F020051DE0D8F8D2
:1003D000180000EB800006EB40003038C8F8180029
:1003E0002046E1688847064600F07DFF0028EED1F0
:1003F000012F0AD02E2E08D12046E16888477F1CA5
:100400000646022F45F02005C4DBA069002803DA68
:10041000404245F00105A061E80701D025F0100534
:10042000A6B1A6F14100192802D8203645F400658E
:100430004A463146204625604D46FFF7DFFE60B153
:10044000012807D0ED1D25F0070000E007E000F1CE
:10045000080978E705F1040975E730467AE7206A6C
:10046000BDE8F09F6A1300007047704770472DE9A0
:10047000F0470D4699469246044600F1240801686B
:10048000880604D5E06921F01001216000E0012018
:10049000A84201DD471B00E00027A1697A1902EBA1
:1004A0000900081AA0612078C00602D42046FFF790
:1004B000EBFE002608E0D4E901211AF80600904777
:1004C000206A401C761C20624E45F4DB2078C00672
:1004D0000AD52046FFF7D8FE06E0D4E901213020F6
:1004E0009047206A401C2062381EA7F10107F4DC07
:1004F00007E0D4E9012118F805009047206A401C64
:100500002062281EA5F10105F3DC2046FFF7D2FE8C
:100510002078000602D50220BDE8F0870120FBE725
:10052000074B70B50D467B4400F011F80446284691
:1005300000F020F810B14FF0FF3070BD204670BDC4
:10054000CB0D000001694A1C02610878704700B5B4
:100550008FB0CDE901310021059105497944CDE9FC
:10056000031011466846FFF7E3FE0FB000BD000020
:10057000E5FFFFFF007B00F080007047754600F04C
:1005800029F8AE4605006946534620F00700854627
:1005900018B020B5FFF75AFEBDE820404FF0000626
:1005A0004FF000074FF000084FF0000B21F007015B
:1005B000AC46ACE8C009ACE8C009ACE8C009ACE89E
:1005C000C0098D4670470446AFF300802046FFF710
:1005D00029FE0000004870475400002001491820FF
:1005E000ABBEFEE72600020070470000014908602C
:1005F00070470000143C0140002123498279002A01
:100600003AD00A46126803689A430B461A600A1DDC
:10061000126803689A430B1D1A60027911440A6834
:1006200003681A430A60184A0832126803689A433A
:10063000154B08331A601A1D126803689A43124B4F
:100640000C331A604279102A0ED11A1F12680368FF
:100650001A430D4B08331A601A1D126803681A43B7
:10066000094B0C331A600DE00749427911440A68BE
:1006700003681A430A6005E0027911440A680368B6
:100680009A430A6070470000003C0140F0B50A46FA
:1006900000210023002400BF3DE0012505FA01F3FD
:1006A000156805EA03049C4234D105684F0003260F
:1006B000BE40B543056015794E00B5400668354328
:1006C00005601579012D02D01579022D16D18568A6
:1006D0004F000326BE40B543856055794E00B540B6
:1006E000866835438560456801268E40B543456080
:1006F000456896798E40B6B235434560C5684F006F
:100700000326BE40B543C560D5794E00B540C668E6
:100710003543C560491C1029BFD3F0BDF0B5002397
:1007200000244D07ED0E02FA05F3CE1000F120056E
:1007300055F826504E07F70E0F26BE40B543CF1092
:1007400000F1200646F82750CE1000F1200555F89C
:10075000265045EA0304CE1000F1200545F8264056
:10076000F0BD000070B5002100230F22C4781CB337
:10077000174C246804F4E064C4F5E064C4F3072172
:10078000C1F10404E3B20A4144789C40E1B28478A8
:10079000144021430C07210E0E4C05786155047856
:1007A00004F01F050124AC4005786D11AD0005F182
:1007B000E025C5F8004109E0047804F01F05012494
:1007C000AC40054D0678761145F8264070BD000016
:1007D0000CED00E000E400E080E100E002490143AC
:1007E000024A1160704700000000FA050CED00E0BD
:1007F000014908627047000000000E4229B1064A14
:1008000012680243044B1A6004E0034A12688243F0
:10081000014B1A60704700003038024029B1064A87
:1008200012680243044B1A6004E0034A12688243D0
:10083000014B1A60704700004038024029B1064A57
:1008400012680243044B1A6004E0034A12688243B0
:10085000014B1A607047000044380240F0B5002197
:1008600000220024022500260223324F3F6807F0B1
:100870000C0121B1042905D0082937D105E02E4FFC
:10088000076036E02D4F076033E02A4F3F1F3F6877
:10089000C7F38056274F3F1F3F6807F03F036EB1F5
:1008A000264FB7FBF3F7DFF88CC0ACF1040CDCF893
:1008B00000C0CCF3881C07FB0CF40CE01E4FB7FB08
:1008C000F3F7DFF870C0ACF1040CDCF800C0CCF337
:1008D000881C07FB0CF4174F3F1F3F68C7F3014705
:1008E0007F1C7D00B4FBF5F7076002E0124F076044
:1008F00000BF00BF0F4F3F6807F0F0010909104F1C
:100900007A5C0768D74047600A4F3F6807F4E051B8
:10091000890A0B4F7A5C4768D7408760054F3F686C
:1009200007F46041490B064F7A5C4768D740C760BF
:10093000F0BD0000083802400024F40000127A00E4
:100940002800002010B501460022002300204A1193
:10095000012A02D10A4C236808E0022A03D1084C7C
:100960007034236802E0064C7434236801F01F02DF
:10097000012494401C400CB1012000E0002010BD77
:10098000003802400021094A11701170012802D07C
:10099000042808D103E00121044A117004E0052174
:1009A000024A117000E000BF00BF7047703802407B
:1009B0000149086070470000800E47420149086005
:1009C000704700003C0E4742002100F44072B2F52F
:1009D000407F08D1094A116821F4F811084A024001
:1009E0001143064A1160054A68321268C0F30B03CE
:1009F0001A43024B68331A607047000008380240FF
:100A0000FFFCFF0F014600BF080900EB8000420019
:100A100001F00F001044C0B270470146002204E00C
:100A2000501CC2B2A1F10A00C1B20A29F8DA1007BB
:100A300041EA106070470000002101098AB242F0CB
:100A40008002044B1B6803F0800363EA0202014B3F
:100A50001A6070470C28004008B500220092002060
:100A60000021104A126802F04002CAB9421E0D4B22
:100A70001A6000BF0B4A126802F04001009A521C33
:100A80000092009AB2F5803F01D00029F2D0054AC9
:100A9000126802F040020AB1012002E0002000E0EA
:100AA000012008BD0C2800400348006820F08000A9
:100AB00001490860704700000C28004070B50646E8
:100AC0000C4600250E4800680E4900EA0105280C76
:100AD000E070C5F30420607005F03F00A070C5F31E
:100AE000423020705EB9E078FFF78CFFE0706078EC
:100AF000FFF788FF6070A078FFF784FFA07070BDDB
:100B0000042800403FFFFF0030B5014600200022CE
:100B100000230C4C246804F004020A4C383C24687E
:100B20000C4002EAD13544EA0503064C343C246803
:100B300004EA11121BB194B20CB1012000E00020B4
:100B400030BD00004028004070B506460C46002528
:100B50000F4800680F4900EA0105C5F30540207001
:100B6000C5F30620607005F07F00A07005F48000DA
:100B7000000CE0705EB92078FFF744FF20706078C9
:100B8000FFF740FF6070A078FFF73CFFA07070BDDA
:100B9000002800407F7F7F00CA22174B1A60532233
:100BA0001A6091B1144A1C3A126820F004031A43E7
:100BB000114B1C3B1A60104A1C32126800F00403EF
:100BC0001A430D4B1C331A6011E00B4A1C3A126891
:100BD00020F004039A43084B1C3B1A60064A1C325F
:100BE000126800F004039A43034B1C331A60FF227F
:100BF000014B1A60704700002428004030B50446BD
:100C00000025CA201549086053200860FFF724FF1B
:100C100000B91DE011481C38006820F040000F4961
:100C20001C39086008460068216808430B491C39D4
:100C300008600A491439A068086008460068A1885D
:100C400040EA0140054914390860FFF72DFF0125EE
:100C5000FF2002490860284630BD000024280040DB
:100C600008B501460020009004480090009800EB71
:100C7000810000900098006808BD000050280040E6
:100C80002DE9F04105460C46002600274DB9607855
:100C900000F01000102804D1607820F010000A3015
:100CA000607005B908E06078FFF7ACFE0646A078F2
:100CB000FFF7A8FE064600BF55B1E0780004617852
:100CC00040EA0120A1780843217840EA413611E04A
:100CD000E078FFF7A2FE4FEA00486078FFF79DFE3C
:100CE00048EA0028A078FFF798FE48EA0008207834
:100CF00048EA4036CA201249086053200860FFF7CE
:100D0000ABFE08B9002714E00E4830400C492039EA
:100D10000860FFF7C9FE0A481C38006800F0200090
:100D200030B900F0A5F808B9002702E0012700E07B
:100D30000127FF20024908603846BDE8F081000025
:100D4000242800403FFFFF002DE9F04105460C46F6
:100D5000002600274DB92E48006800F0400000B181
:100D600002E00020E07000BF0DE02948006800F0BC
:100D7000400020B12078FFF745FE064602E0002043
:100D8000E07000BF00BF55B120780004617840EAF0
:100D90000120A1780843E17840EA014611E020787B
:100DA000FFF73BFE4FEA00486078FFF736FE48EA5F
:100DB0000028A078FFF731FE48EA0008E07848EA0A
:100DC0000046CA2012491C31086053200860FFF712
:100DD00043FE08B9002713E00E4830400C4908399B
:100DE0000860FFF761FE0A48006800F0200030B993
:100DF00000F03EF808B9002702E0012700E00127D3
:100E0000FF2003491C3108603846BDE8F08100002E
:100E1000082800407F7F7F00CA21054A11605321C6
:100E20001160034910390860FF211160704700000C
:100E30002428004010B54FF48040FFF765FE80B1D4
:100E40000848006880F001000749C1F8A4020120A9
:100E5000064908608003FFF7EFFD4FF48000FFF7BD
:100E6000C5FB10BDA4824242008042422400002003
:100E700008B50022009200200021CA22134B1A60FC
:100E800053221A60114A183A126822F0A0020F4B3E
:100E9000183B1A6000BF0D4A183A126802F0200190
:100EA000009A521C0092009AB2F5003F01D000292E
:100EB000F1D0064A183A126802F020020AB1012065
:100EC00000E00020FF22014B1A6008BD24280040EA
:100ED000CA210A4A11605321116008491C39096866
:100EE00021F00701054A1C3A1160114609680143C7
:100EF0001160FF21014A1160704700002428004062
:100F000018B501460023009300220020CA23194C83
:100F100023605323236049B1164B1C3B1B6843F4E9
:100F20008063144C1C3C236001201FE0114B1C3BD0
:100F30001B6823F480630F4C1C3C236000BF0D4BE7
:100F4000183B1B6803F00402009B5B1C0093009B92
:100F5000B3F5803F01D0002AF1D0064B183B1B6847
:100F600003F004030BB9002000E00120FF23014C33
:100F7000236018BD2428004008B500220092044ACE
:100F80000092009A02EB80020092009A116008BD64
:100F9000502800400CB500200190009034480068B3
:100FA00040F480303249086000BF3148006800F4E6
:100FB000003000900198401C0190009818B90198E9
:100FC000B0F5A04FF1D12A48006800F4003010B10C
:100FD0000120009001E0002000900098012846D1F7
:100FE00023484030006840F080502149403108607B
:100FF0002048006840F440401E4908601C48083002
:1010000000681B49083108600846006840F4004049
:1010100008600846006840F4A05008601648091FA0
:101020000860081F006840F08070091F086000BF5A
:101030000F48006800F000700028F9D040F20570F9
:101040000E4908600A480830006820F0030008498B
:10105000083108600846006840F00200086000BFE0
:1010600003480830006800F00C000828F8D10CBDD7
:10107000003802400070004008544007003C024025
:1010800010B51548006840F4700013490860134813
:10109000006840F001001149086000200F49083144
:1010A00008600E4800680E4908400C4908600D4869
:1010B000091D0860081F006820F48020091F0860CF
:1010C000002006490C310860FFF764FF4FF0006014
:1010D00001498039086010BD88ED00E00038024009
:1010E000FFFFF6FE1030002410B540F225510748EE
:1010F00000F036F8012808D1044800F0EBF8C4B23B
:1011000040F22551014800F003F810BD00100140E5
:1011100010B50022002340F66A14A14200D100BF9E
:101120000A1201249440A3B2DC43048010BD21B113
:10113000828942F40052828104E082894DF6FF7375
:101140001A408281704702460020B1F5007F00D12D
:1011500000BF13880B400BB1012000E00020704756
:1011600070B50246002400230025002040F66A16D0
:10117000B14200D100BFC1F3421501F01F030126A7
:1011800006FA03F3012D02D19689334006E0022DC1
:1011900002D1168A334001E0968A33400C120126B0
:1011A00006FA04F41688344013B10CB1012000E0B3
:1011B000002070BDF0B50346002400260025002065
:1011C00040F66A17B94200D100BF1846C1F3421475
:1011D00001F01F06012707FA06F5012C01D10C309A
:1011E00004E0022C01D1103000E014301AB107687D
:1011F0002F43076002E00768AF430760F0BD0000BF
:101200002DE9FF4705460E460024A14600BFA04633
:10121000B08900B100BF2C8A24F44054F088044304
:101220002C82AC8941F20C608443B0883189084338
:10123000718908430443AC81AC8A24F44074B089BA
:101240000443AC826846FFF709FB2048854202D080
:101250001F48854202D1DDF80C9001E0DDF80890CE
:10126000A88900F4004040B109EBC90000EB091067
:1012700031684900B0FBF1F707E009EBC90000EB6A
:10128000091031688900B0FBF1F76420B7FBF0F07A
:1012900004012009642101FB1078A88900F40040B2
:1012A00040B1322000EBC800B0FBF1F000F00700C5
:1012B000044308E0322000EB08106421B0FBF1F099
:1012C00000F00F0004432C81BDE8FF8700100140AF
:1012D0000014014001468888C0F308007047C1F33C
:1012E00008028280704730380A2801D201207047F6
:1012F0000020704770B504460D4600BF40210548E8
:10130000FFF721FF0028F9D0A1B20248FFF7E7FF5D
:10131000204670BD0010014008B5192421254FF466
:101320004070FFF75BFA01212020FFF767FA0120E8
:10133000544908714FF4E0600860002088714871DA
:10134000C8715148FFF7A2F901205049086050497F
:10135000C1F8A8024FF4E13000F040F90020FFF797
:101360007FFC46F26861884207D000F0C5F846F27B
:1013700068610020FFF700FE4DE001210807FFF73C
:101380004DFA0120FFF734FA0120FFF711FB00BFEF
:101390006120FFF7D7FA0028FAD04FF40070FFF76A
:1013A00013FB0120FFF70AFBFFF762FD7F2039499D
:1013B0004860F9208860002008600846FFF71EFC9E
:1013C0000020FFF79DFD0420FFF782FD0020FFF7BE
:1013D00023FD4FF48040FFF72FFB01218803FFF727
:1013E000DBFB0120FFF78CFD4FF480002A490860E9
:1013F0000020087108204871012088710846FFF715
:10140000FBF8032025490870487088700120C870D7
:101410000846FFF7A7F922A0FEF72AFF31E025488A
:10142000006800281BD024490120FFF78DFB2248CB
:1014300083784278017821A0FEF71AFF2549012020
:10144000FFF73CFB234800780090224883784278DD
:10145000C17821A0FEF70CFF00201649086016484D
:101460000078A0420DD114484078A84209D1124812
:10147000807830B900200549091F08600449C1F887
:10148000A802CCE70000002000140240A4824242DF
:1014900000804242480000201C000020080000207C
:1014A000546869732069732072746320746573745F
:1014B0000D0A0000240000201400002054696D650E
:1014C00020253032783A253032783A253032780D7E
:1014D0000A000000180000204461746520323025A5
:1014E0003032782F253032782F25303278205765EA
:1014F000656B3A25780D0A0010B501210807FFF742
:101500008DF90120FFF774F90120FFF73BFA00BFC6
:101510004120FFF717FA0028FAD04FF48070FFF748
:1015200053FA0120FFF74AFAFFF7A2FC7F20264971
:101530004860FF208860002008600846FFF75EFBD7
:1015400023202249C870042048702420887001207C
:101550000870FFF795FB40201D49C87017200870E0
:1015600030204870002088700120FFF7EDFB00203C
:10157000FFF7C6FC0420FFF7ABFC0020FFF74CFC94
:101580004FF48040FFF758FA01218803FFF704FB6E
:101590000120FFF7B5FC4FF480000E4908600020E1
:1015A000087108204871012088710846FFF724F867
:1015B000032009490870487088700120C8700846E7
:1015C000FFF7D0F810BD00004800002018000020F0
:1015D000140000201C0000200800002010B5044664
:1015E00001211020FFF72AF901210846FFF706F92B
:1015F00002201D4908714FF4C06008600020887106
:10160000032048710020C8711848FFF73FF80722EF
:1016100009211648FFF782F807220A211348FFF72D
:101620007DF813480460002011498880C880088133
:1016300088810C2048810F48FFF7E2FD012240F22B
:1016400025510C48FFF7B6FD25200B4908700020F6
:10165000487088700120C8700846FFF783F80121A0
:101660000448FFF764FD10BD0000002000000240A8
:101670003800002000100140080000204FF04070AA
:10168000E1EE100A704730313233343536373839AD
:1016900041424344454640305800303132333435BE
:1016A000363738396162636465664030780004001B
:1016B000000800000000000000020001000010000F
:1016C000E01600080000002038000000C4010008F7
:1016D000181700083800002080060000E00100080C
:1016E00000000000000000000000000000000000FA
:1016F00000000000000000000000000000000000EA
:1017000000000000000000000000000001020304CF
:081710000102030406070809A9
:0400000508000231BC
:00000001FF
