:020000040800F2
:100000009806002031020008390200083B0200086F
:100010003D0200083F020008410200080000000005
:100020000000000000000000000000004302000883
:1000300045020008000000004702000849020008CD
:100040004B0200084B0200084B0200084B0200085C
:100050004B0200084B0200084B0200084B0200084C
:100060004B0200084B0200084B0200084B0200083C
:100070004B0200084B0200084B0200084B0200082C
:100080004B0200084B0200084B0200084B0200081C
:100090004B0200084B0200084B0200084B0200080C
:1000A0004B0200084B0200084B0200084B020008FC
:1000B0004B0200084B0200084B0200084B020008EC
:1000C0004B0200084B0200084B0200084B020008DC
:1000D0004B020008B50800084B0200084B0200085C
:1000E0004B0200084B0200084B0200084B020008BC
:1000F0004B0200084B0200084B0200084B020008AC
:100100004B0200084B0200084B0200084B0200089B
:100110004B0200084B0200084B0200084B0200088B
:100120004B0200084B0200084B0200084B0200087B
:100130004B0200084B0200084B0200084B0200086B
:100140004B0200084B0200084B0200084B0200085B
:100150004B0200084B0200084B0200084B0200084B
:100160004B0200084B0200084B0200084B0200083B
:100170004B0200084B0200084B0200084B0200082B
:100180004B0200084B02000800F002F800F041F8B2
:100190000AA090E8000C82448344AAF10107DA45E2
:1001A00001D100F036F8AFF2090EBAE80F0013F0F3
:1001B000010F18BFFB1A43F001031847040C00009D
:1001C000240C0000103A24BF78C878C1FAD852072E
:1001D00024BF30C830C144BF04680C6070470000C1
:1001E0000023002400250026103A28BF78C1FBD840
:1001F000520728BF30C148BF0B607047642900F028
:100200007780002070471FB500F0D4FD1FBD10B5EA
:1002100010BD00F033F91146FFF7F5FF00F094FC34
:1002200000F051F903B4FFF7F2FF03BC00F056F9F8
:100230000948804709480047FEE7FEE7FEE7FEE77A
:10024000FEE7FEE7FEE7FEE7FEE7FEE704480549B6
:10025000054A064B704700004D0800088901000858
:1002600098000020980600209802002098020020A4
:100270000FB4044910B503AA029800F0D1F810BCDD
:100280005DF814FB0C0000202DE9F0410E460446F9
:10029000002020622046E168884730B3252805D039
:1002A000D4E901219047206A401CF2E7E16820462A
:1002B00000278847050018D0A5F14100192802D869
:1002C00020354FF400673246294620462760FFF765
:1002D00095FF40B1012804D0F61D26F00706083628
:1002E000D8E7361DD6E72846DAE7206ABDE8F08170
:1002F0002DE9F0410646002410687529314616A5FF
:1003000010D0AFF30080002802DA404213A507E0C6
:1003100031688A0701D512A502E0490704D511A565
:10032000012401E0AFF3008000210A2206F1240736
:1003300009E0B0FBF2FCB0FBF2F302FB1C00303032
:1003400078541846491C0028F3D123462A463046E3
:10035000BDE8F04100F00BB8000000002D000000E7
:100360002B000000200000007047704770472DE907
:10037000F0470D4699469246044600F1240801686C
:10038000880604D5E06921F01001216000E0012019
:10039000A84201DD471B00E00027A1697A1902EBA2
:1003A0000900081AA0612078C00602D42046AFF3E5
:1003B0000080002608E0D4E901211AF806009047E1
:1003C000206A401C761C20624E45F4DB2078C00673
:1003D0000AD52046AFF3008006E0D4E901213020A1
:1003E0009047206A401C2062381EA7F10107F4DC08
:1003F00007E0D4E9012118F805009047206A401C65
:100400002062281EA5F10105F3DC2046AFF3008031
:100410002078000602D50220BDE8F0870120FBE726
:10042000074B70B50D467B4400F011F80446284692
:1004300000F020F810B14FF0FF3070BD204670BDC5
:10044000FB06000001694A1C02610878704700B58C
:100450008FB0CDE901310021059105497944CDE9FD
:10046000031011466846FFF70FFF0FB000BD0000F4
:10047000E5FFFFFF007B00F080007047754600F04D
:1004800029F8AE4605006946534620F00700854628
:1004900018B020B5FFF7DAFEBDE820404FF00006A7
:1004A0004FF000074FF000084FF0000B21F007015C
:1004B000AC46ACE8C009ACE8C009ACE8C009ACE89F
:1004C000C0098D4670470446AFF300802046FFF711
:1004D000A9FE0000004870473400002001491820A0
:1004E000ABBEFEE7260002007047F0B50A460021C9
:1004F0000023002400BF3DE0012505FA01F3156843
:1005000005EA03049C4234D105684F000326BE402F
:10051000B543056015794E00B54006683543056062
:100520001579012D02D01579022D16D185684F005D
:100530000326BE40B543856055794E00B5408668B8
:1005400035438560456801268E40B5434560456862
:1005500096798E40B6B235434560C5684F00032694
:10056000BE40B543C560D5794E00B540C668354339
:10057000C560491C1029BFD3F0BDF0B5002300248D
:100580004D07ED0E02FA05F3CE1000F1200555F8E7
:1005900026504E07F70E0F26BE40B543CF1000F190
:1005A000200646F82750CE1000F1200555F82650B9
:1005B00045EA0304CE1000F1200545F82640F0BDC1
:1005C00070B5002100230F22C4781CB3174C246897
:1005D00004F4E064C4F5E064C4F30721C1F1040449
:1005E000E3B20A4144789C40E1B28478144021434C
:1005F0000C07210E0E4C05786155047804F01F0598
:100600000124AC4005786D11AD0005F1E025C5F879
:10061000004109E0047804F01F050124AC40054DB9
:100620000678761145F8264070BD00000CED00E01C
:1006300000E400E080E100E029B1064A12680243CC
:10064000044B1A6004E0034A12688243014B1A60AB
:10065000704700003038024029B1064A1268024350
:10066000044B1A6004E0034A12688243014B1A608B
:100670007047000044380240F0B5002100220024F9
:10068000022500260223324F3F6807F00C0121B1FA
:10069000042905D0082937D105E02E4F076036E040
:1006A0002D4F076033E02A4F3F1F3F68C7F3805646
:1006B000274F3F1F3F6807F03F036EB1264FB7FB40
:1006C000F3F7DFF88CC0ACF1040CDCF800C0CCF31D
:1006D000881C07FB0CF40CE01E4FB7FBF3F7DFF8A8
:1006E00070C0ACF1040CDCF800C0CCF3881C07FB34
:1006F0000CF4174F3F1F3F68C7F301477F1C7D0075
:10070000B4FBF5F7076002E0124F076000BF00BFBF
:100710000F4F3F6807F0F0010909104F7A5C076836
:10072000D74047600A4F3F6807F4E051890A0B4FF2
:100730007A5C4768D7408760054F3F6807F460419F
:10074000490B064F7A5C4768D740C760F0BD000090
:10075000083802400024F40000127A00140000203F
:100760000CB50020019000903448006840F48030BF
:100770003249086000BF3148006800F40030009042
:100780000198401C0190009818B90198B0F5A04F4D
:10079000F1D12A48006800F4003010B10120009027
:1007A00001E0002000900098012846D12348403005
:1007B000006840F0805021494031086020480068BE
:1007C00040F440401E4908601C48083000681B493E
:1007D000083108600846006840F400400860084698
:1007E000006840F4A05008601648091F0860081F00
:1007F000006840F08070091F086000BF0F48006863
:1008000000F000700028F9D040F205700E49086031
:100810000A480830006820F00300084908310860E1
:100820000846006840F00200086000BF0348083036
:10083000006800F00C000828F8D10CBD0038024018
:100840000070004008544007003C024010B51548B5
:10085000006840F47000134908601348006840F0D5
:1008600001001149086000200F49083108600E4856
:1008700000680E4908400C4908600D48091D0860D1
:10088000081F006820F48020091F08600020064926
:100890000C310860FFF764FF4FF0006001498039B8
:1008A000086010BD88ED00E000380240FFFFF6FE52
:1008B0001030002410B540F22551094800F03AF8F4
:1008C00001280CD1064800F0EFF8C4B221460448D4
:1008D00000F0EFF840F22551014800F003F810BD98
:1008E0000010014010B50022002340F66A14A14216
:1008F00000D100BF0A1201249440A3B2DC4304805B
:1009000010BD21B1828942F40052828104E08289C3
:100910004DF6FF731A408281704702460020B1F500
:10092000007F00D100BF13880B400BB1012000E015
:100930000020704770B502460024002300250020E7
:1009400040F66A16B14200D100BFC1F3421501F072
:100950001F03012606FA03F3012D02D196893340C5
:1009600006E0022D02D1168A334001E0968A334018
:100970000C12012606FA04F41688344013B10CB1A7
:10098000012000E0002070BDF0B5034600240026E1
:100990000025002040F66A17B94200D100BF184672
:1009A000C1F3421401F01F06012707FA06F5012CD6
:1009B00001D10C3004E0022C01D1103000E01430E1
:1009C0001AB107682F43076002E00768AF4307606A
:1009D000F0BD00002DE9FF4705460E460024A14664
:1009E00000BFA046B08900B100BF2C8A24F4405457
:1009F000F08804432C82AC8941F20C608443B088B7
:100A000031890843718908430443AC81AC8A24F4DA
:100A10004074B0890443AC826846FFF72DFE20483D
:100A2000854202D01F48854202D1DDF80C9001E0DA
:100A3000DDF80890A88900F4004040B109EBC90036
:100A400000EB091031684900B0FBF1F707E009EB52
:100A5000C90000EB091031688900B0FBF1F7642090
:100A6000B7FBF0F004012009642101FB1078A8898C
:100A700000F4004040B1322000EBC800B0FBF1F0C0
:100A800000F00700044308E0322000EB0810642166
:100A9000B0FBF1F000F00F0004432C81BDE8FF87AC
:100AA000001001400014014001468888C0F308008E
:100AB0007047C1F308028280704712E000214FF0B6
:100AC000E022116145F2072151610021916101216C
:100AD000116100BF4FF0E021096901F48031002964
:100AE000F8D00100A0F10100E8D14FF0E02211613F
:100AF000704700214FF0E0221161A8214143491EB7
:100B00005161002191610521116100BF4FF0E02189
:100B1000096901F480310029F8D000214FF0E0226A
:100B20001161704770B504460D4600BF402105486D
:100B3000FFF7F3FE0028F9D0A1B20248FFF7B9FF92
:100B4000204670BD0010014001212020FFF774FDF8
:100B500001201C490871400208600020887148711A
:100B6000C8711948FFF7C1FC01201849086000F05E
:100B7000A1F84FF4E13000F0CDF86420FFF79DFFBD
:100B800013A0FFF775FB1BE000F05AF80446002C99
:100B900004DA214613A0FFF76BFB0DE0142C07DBF2
:100BA000B4F57A6F04DC214616A0FFF761FB03E081
:100BB00021461BA0FFF75CFB4FF47A70FFF77DFF27
:100BC000E2E700000000002000140240A48242423C
:100BD00054686973206973207372303420746573AC
:100BE000740D0A0073723034206765742064697371
:100BF00074616E6365206572726F722025640D0AE0
:100C000000000000737230342067657420646973DB
:100C100074616E6365202564206D6D0D0A0000000F
:100C200073723034206765742064697374616E6315
:100C30006520696E76616C282564290D0A00000024
:100C400010B500230120174908600A20FFF751FF63
:100C500000201549C1F89802002309E05B1C01201F
:100C6000FFF747FF1148834202D34FF0FF3010BD1A
:100C70000F4800680028F1D0002309E00920FFF7A1
:100C800038FF5B1C0948834202D36FF00100EEE796
:100C9000074800680028F1D103EB430044082046D0
:100CA000E5E700009882404200804042A0860100B3
:100CB0001802424210B501210220FFF7BDFC0121BC
:100CC0001020FFF7B9FC01200E4908714020086090
:100CD00000208871032048710020C8710A48FFF77E
:100CE00004FC002007490871402008600320487177
:100CF0000020C8710548FFF7F8FB00200449086090
:100D000010BD00000000002000040240001002405E
:100D10009882404210B5044601211020FFF79CFC48
:100D200001210846FFF788FC02201D4908714FF495
:100D3000C060086000208871032048710020C871DD
:100D40001848FFF7D2FB072209211648FFF715FCC8
:100D500007220A211348FFF710FC13480460002003
:100D600011498880C880088188810C2048810F48FB
:100D7000FFF730FE012240F225510C48FFF704FE38
:100D800025200B4908700020487088700120C87029
:100D90000846FFF715FC01210448FFF7B2FD10BD1E
:100DA000000000200000024024000020001001404C
:100DB000080000204FF04070E1EE100A704700007C
:100DC000E00D00080000002024000000C40100081D
:100DD000040E00082400002074060000E001000852
:100DE0000000000000000000000000000000000003
:100DF00000000000000000000102030401020304DF
:040E000006070809D0
:0400000508000231BC
:00000001FF
