:020000040800F2
:10000000900600202902000831020008330200088F
:10001000350200083702000839020008000000001D
:100020000000000000000000000000003B0200088B
:100030003D020008000000003F02000841020008E5
:10004000430200084302000843020008430200087C
:10005000430200084302000843020008430200086C
:10006000430200084302000843020008430200085C
:10007000430200084302000843020008430200084C
:10008000430200084302000843020008430200083C
:10009000430200084302000843020008430200082C
:1000A000430200084302000843020008430200081C
:1000B000430200084302000843020008430200080C
:1000C00043020008430200084302000843020008FC
:1000D00043020008430200084302000843020008EC
:1000E00043020008430200084302000843020008DC
:1000F00043020008430200084302000843020008CC
:1001000043020008430200084302000843020008BB
:1001100043020008430200084302000843020008AB
:10012000430200084302000843020008430200089B
:10013000430200084302000843020008430200088B
:10014000430200084302000843020008430200087B
:10015000430200084302000843020008430200086B
:10016000430200084302000843020008430200085B
:10017000430200084302000843020008430200084B
:10018000430200084302000800F002F800F03CF8C7
:100190000AA090E8000C82448344AAF10107DA45E2
:1001A00001D100F031F8AFF2090EBAE80F0013F0F8
:1001B000010F18BFFB1A43F001031847C4070000E2
:1001C000E4070000103A24BF78C878C1FAD8520773
:1001D00024BF30C830C144BF04680C6070470000C1
:1001E0000023002400250026103A28BF78C1FBD840
:1001F000520728BF30C148BF0B6070471FB500F0E1
:10020000B9FB1FBD10B510BD00F031F81146FFF766
:10021000F5FF00F0F1FA00F04FF803B4FFF7F2FF3A
:1002200003BC00F053F80000094880470948004724
:10023000FEE7FEE7FEE7FEE7FEE7FEE7FEE7FEE796
:10024000FEE7FEE704480549054A064B70470000F3
:10025000FD0400088901000890000020900600209D
:10026000900200209002002070477047704775464A
:1002700000F028F8AE4605006946534620F0070016
:10028000854618B020B5FFF7DDFFBDE820404FF0F0
:1002900000064FF000074FF000084FF0000B21F070
:1002A0000701AC46ACE8C009ACE8C009ACE8C0093D
:1002B000ACE8C0098D4670470446AFF30080204685
:1002C000FFF7ABFF004870472C00002001491820C1
:1002D000ABBEFEE7260002007047F0B50A460021DB
:1002E0000023002400BF3DE0012505FA01F3156855
:1002F00005EA03049C4234D105684F000326BE4042
:10030000B543056015794E00B54006683543056074
:100310001579012D02D01579022D16D185684F006F
:100320000326BE40B543856055794E00B5408668CA
:1003300035438560456801268E40B5434560456874
:1003400096798E40B6B235434560C5684F000326A6
:10035000BE40B543C560D5794E00B540C66835434B
:10036000C560491C1029BFD3F0BDF0B5002300249F
:100370004D07ED0E02FA05F3CE1000F1200555F8F9
:1003800026504E07F70E0F26BE40B543CF1000F1A2
:10039000200646F82750CE1000F1200555F82650CB
:1003A00045EA0304CE1000F1200545F82640F0BDD3
:1003B00029B1064A12680243044B1A6004E0034A5A
:1003C00012688243014B1A607047000030380240C7
:1003D00029B1064A12680243044B1A6004E0034A3A
:1003E00012688243014B1A60704700004038024097
:1003F00029B1064A12680243044B1A6004E0034A1A
:1004000012688243014B1A60704700004438024072
:100410000CB50020019000903448006840F4803012
:100420003249086000BF3148006800F40030009095
:100430000198401C0190009818B90198B0F5A04FA0
:10044000F1D12A48006800F4003010B1012000907A
:1004500001E0002000900098012846D12348403058
:10046000006840F080502149403108602048006811
:1004700040F440401E4908601C48083000681B4991
:10048000083108600846006840F4004008600846EB
:10049000006840F4A05008601648091F0860081F53
:1004A000006840F08070091F086000BF0F480068B6
:1004B00000F000700028F9D040F205700E49086085
:1004C0000A480830006820F0030008490831086035
:1004D0000846006840F00200086000BF034808308A
:1004E000006800F00C000828F8D10CBD003802406C
:1004F0000070004008544007003C024010B5154809
:10050000006840F47000134908601348006840F028
:1005100001001149086000200F49083108600E48A9
:1005200000680E4908400C4908600D48091D086024
:10053000081F006820F48020091F08600020064979
:100540000C310860FFF764FF4FF00060014980390B
:10055000086010BD88ED00E000380240FFFFF6FEA5
:100560001030002421B1028842F00102028004E030
:1005700002884FF6FE731A400280704731B1B0F81E
:10058000442042F40042A0F8442005E0B0F84420A2
:10059000C2F30E02A0F844207047000070B500249A
:1005A00000220023058C4FF6FE7635400584028C30
:1005B0008388048B4FF68F752C40B51E2C400D8818
:1005C0002C43751E2A408D892A434D882A43104D9D
:1005D000A84202D00F4DA84213D14FF6F7752A401A
:1005E000CD892A434FF6FB752A408D882A434FF662
:1005F000FF652B404FF6FF552B400D8A2B434D8A4C
:100600002B43838004838D684563028470BD0000A2
:10061000000001400004014070B5002400220023C6
:10062000058C4FF6FF6635400584028C8388848BE9
:100630004FF68F752C404FF6FC752C400D882C43DF
:100640004FF6FF552A408D894FF6FF7606EA0525BD
:100650002A434D8806EA05252A43154DA84202D0B3
:10066000144DA8421DD14FF2FF752A40CD894FF697
:10067000FF7606EA05252A434FF6FF352A408D8886
:1006800006EA05252A434EF6FF752B404DF6FF7509
:100690002B400D8A06EA05152B434D8A06EA0515FF
:1006A0002B43838084838D68C563028470BD000002
:1006B000000001400004014070B500220023002426
:1006C000058C4EF6FF7635400584038C8488828B3A
:1006D00048F6FF752A404FF6FF452A400D884FF631
:1006E000FF7606EA05252A434DF6FF752B408D89D6
:1006F00006EA05352B434D8806EA05352B430A4D9E
:10070000A84202D0094DA84208D14BF6FF752C40F3
:100710000D8A4FF6FF7606EA85152C438480828386
:100720008D680564038470BD000001400004014031
:1007300041637047C16370470164704700220288BB
:10074000184B98420ED0184B98420BD0B0F1804F06
:1007500008D0164B984205D0154B984202D0154B45
:10076000984204D14FF68F731A404B881A43124BAC
:10077000984207D0114B984204D04FF6FF431A40DD
:100780000B891A4302804B68C3620B880385054BB3
:10079000984202D0044B984201D18B7A0386012300
:1007A00083827047000001400004014000040040C3
:1007B00000080040000C0040001000400014004001
:1007C00012E000214FF0E022116145F20721516152
:1007D000002191610121116100BF4FF0E021096901
:1007E00001F480310029F8D00100A0F10100E8D126
:1007F0004FF0E02211617047002401211020FFF723
:10080000D7FD01212020FFF7D3FD02202A490871DE
:1008100000020860002088714871C8712748FFF7FE
:100820005CFD0220244908714FF4C040086000209C
:1008300088714871C8712248FFF74FFD01220D21D0
:100840001F48FFF792FD01220E211D48FFF78DFD85
:10085000092211461948FFF788FD00F05DF800F005
:1008600035F828E00FE021461648FFF761FF2146E2
:100870001548FFF75FFF21461348FFF75DFF641C33
:100880003220FFF79DFF642CEDD30FE021460D4889
:10089000FFF74EFF21460C48FFF74CFF21460A4860
:1008A000FFF74AFF641E3220FFF78AFF002CEDD1CC
:1008B000C820FFF785FFD5E70000002000140240A4
:1008C00000100240002000400000014010B501214E
:1008D0000802FFF77DFD63200C49486042F2CF001B
:1008E0000880002048800A48FFF728FF6020094957
:1008F0000880012048800020886088810448FFF734
:100900004DFE01210248FFF72DFE10BD0C00002016
:10091000002000401800002010B501210846FFF714
:1009200067FD63201049486044F29F100880002052
:1009300048800E48FFF702FF60200D490880012023
:1009400048800020886088810848FFF765FE0849D4
:100950000648FFF7B1FE01210448FFF703FE01211D
:100960000248FFF70BFE10BD0C0000200000014004
:10097000180000204FF04070E1EE100A70470000B0
:10098000A0090008000000200C000000C4010008BD
:10099000AC0900080C00002084060000E0010008FB
:0C09A0000000000000000000000000004B
:0400000508000229C4
:00000001FF
