:020000040800F2
:10000000A806002031020008390200083B0200085F
:100010003D0200083F020008410200080000000005
:100020000000000000000000000000004302000883
:1000300045020008000000004702000849020008CD
:100040004B0200084B0200084B0200084B0200085C
:100050004B0200084B0200084B0200084B0200084C
:100060004B0200084B0200084B0200084B0200083C
:100070004B0200084B0200084B0200084B0200082C
:100080004B0200084B0200084B0200084B0200081C
:100090004B0200084B0200084B0200084B0200080C
:1000A0004B0200084B0200084B0200084B020008FC
:1000B0004B0200084B0200084B0200084B020008EC
:1000C0004B0200084B0200084B0200084B020008DC
:1000D0004B0200085D0A00084B0200084B020008B2
:1000E0004B0200084B0200084B0200084B020008BC
:1000F0004B0200084B0200084B0200084B020008AC
:100100004B0200084B0200084B0200084B0200089B
:100110004B0200084B0200084B0200084B0200088B
:100120004B0200084B0200084B0200084B0200087B
:100130004B0200084B0200084B0200084B0200086B
:100140004B0200084B0200084B0200084B0200085B
:100150004B0200084B0200084B0200084B0200084B
:100160004B0200084B0200084B0200084B0200083B
:100170004B0200084B0200084B0200084B0200082B
:100180004B0200084B02000800F002F800F041F8B2
:100190000AA090E8000C82448344AAF10107DA45E2
:1001A00001D100F036F8AFF2090EBAE80F0013F0F3
:1001B000010F18BFFB1A43F001031847500D000050
:1001C000700D0000103A24BF78C878C1FAD85207E1
:1001D00024BF30C830C144BF04680C6070470000C1
:1001E0000023002400250026103A28BF78C1FBD840
:1001F000520728BF30C148BF0B607047782900F014
:100200006B80002070471FB500F05EFE1FBD10B56B
:1002100010BD00F0B3F91146FFF7F5FF00F036FD11
:1002200000F0D1F903B4FFF7F2FF03BC00F0D6F9F8
:100230000948804709480047FEE7FEE7FEE7FEE77A
:10024000FEE7FEE7FEE7FEE7FEE7FEE704480549B6
:10025000054A064B70470000F509000889010008AF
:10026000A8000020A8060020A8020020A802002064
:100270000FB4044910B503AA029800F051F910BC5C
:100280005DF814FB0C00002070B504468569006819
:10029000C10601D5302600E02026C00707D070BD7A
:1002A000D4E9012130469047206A401C20626D1E2F
:1002B000F6D570BD70B5044685690078C00707D1D2
:1002C00070BDD4E9012120209047206A401C2062A3
:1002D0006D1EF6D570BD000070B504460D46214672
:1002E0001068AFF300802188090502D50F4A7A44CF
:1002F00002E00E4A7A440E32002104F1240305E0A4
:1003000000F00F060009965D5E54491C0028F7D1E5
:1003100020780023000704D5702D02D009B10223F4
:1003200011322046BDE8704000F0A1B8E00B00009B
:100330002DE9F05F894604464FF0000ADFF824B14A
:10034000FB44C0F820A02046E168884700287DD003
:10035000252806D0D4E901219047206A401C20625C
:10036000F1E700255F462046E168884720280646D9
:1003700007DB312E05D2B81910F8200C08B105435F
:10038000F1E7A80701D525F00405C4F81CA0002753
:10039000C4F818A02A2E09D0304600F05EFC38B30D
:1003A00004EB8708303EC8F8186019E059F8041BC0
:1003B000204604EB87029161E1688847012F0646D9
:1003C00018D1E069002820DA25F020051DE0D8F8D2
:1003D000180000EB800006EB40003038C8F8180029
:1003E0002046E1688847064600F037FC0028EED139
:1003F000012F0AD02E2E08D12046E16888477F1CA5
:100400000646022F45F02005C4DBA069002803DA68
:10041000404245F00105A061E80701D025F0100534
:10042000A6B1A6F14100192802D8203645F400658E
:100430004A463146204625604D46FFF7DFFE60B153
:10044000012807D0ED1D25F0070000E007E000F1CE
:10045000080978E705F1040975E730467AE7206A6C
:10046000BDE8F09FB60B00007047704770472DE95C
:10047000F0470D4699469246044600F1240801686B
:10048000880604D5E06921F01001216000E0012018
:10049000A84201DD471B00E00027A1697A1902EBA1
:1004A0000900081AA0612078C00602D42046FFF790
:1004B000EBFE002608E0D4E901211AF80600904777
:1004C000206A401C761C20624E45F4DB2078C00672
:1004D0000AD52046FFF7D8FE06E0D4E901213020F6
:1004E0009047206A401C2062381EA7F10107F4DC07
:1004F00007E0D4E9012118F805009047206A401C64
:100500002062281EA5F10105F3DC2046FFF7D2FE8C
:100510002078000602D50220BDE8F0870120FBE725
:10052000074B70B50D467B4400F011F80446284691
:1005300000F020F810B14FF0FF3070BD204670BDC4
:100540003F07000001694A1C02610878704700B546
:100550008FB0CDE901310021059105497944CDE9FC
:10056000031011466846FFF7E3FE0FB000BD000020
:10057000E5FFFFFF007B00F080007047754600F04C
:1005800029F8AE4605006946534620F00700854627
:1005900018B020B5FFF75AFEBDE820404FF0000626
:1005A0004FF000074FF000084FF0000B21F007015B
:1005B000AC46ACE8C009ACE8C009ACE8C009ACE89E
:1005C000C0098D4670470446AFF300802046FFF710
:1005D00029FE00000048704748000020014918200B
:1005E000ABBEFEE7260002007047F0B50A460021C8
:1005F0000023002400BF3DE0012505FA01F3156842
:1006000005EA03049C4234D105684F000326BE402E
:10061000B543056015794E00B54006683543056061
:100620001579012D02D01579022D16D185684F005C
:100630000326BE40B543856055794E00B5408668B7
:1006400035438560456801268E40B5434560456861
:1006500096798E40B6B235434560C5684F00032693
:10066000BE40B543C560D5794E00B540C668354338
:10067000C560491C1029BFD3F0BDF0B5002300248C
:100680004D07ED0E02FA05F3CE1000F1200555F8E6
:1006900026504E07F70E0F26BE40B543CF1000F18F
:1006A000200646F82750CE1000F1200555F82650B8
:1006B00045EA0304CE1000F1200545F82640F0BDC0
:1006C00070B5002100230F22C4781CB3174C246896
:1006D00004F4E064C4F5E064C4F30721C1F1040448
:1006E000E3B20A4144789C40E1B28478144021434B
:1006F0000C07210E0E4C05786155047804F01F0597
:100700000124AC4005786D11AD0005F1E025C5F878
:10071000004109E0047804F01F050124AC40054DB8
:100720000678761145F8264070BD00000CED00E01B
:1007300000E400E080E100E029B1064A12680243CB
:10074000044B1A6004E0034A12688243014B1A60AA
:10075000704700003038024029B1064A126802434F
:10076000044B1A6004E0034A12688243014B1A608A
:100770007047000044380240F0B5002100220024F8
:10078000022500260223324F3F6807F00C0121B1F9
:10079000042905D0082937D105E02E4F076036E03F
:1007A0002D4F076033E02A4F3F1F3F68C7F3805645
:1007B000274F3F1F3F6807F03F036EB1264FB7FB3F
:1007C000F3F7DFF88CC0ACF1040CDCF800C0CCF31C
:1007D000881C07FB0CF40CE01E4FB7FBF3F7DFF8A7
:1007E00070C0ACF1040CDCF800C0CCF3881C07FB33
:1007F0000CF4174F3F1F3F68C7F301477F1C7D0074
:10080000B4FBF5F7076002E0124F076000BF00BFBE
:100810000F4F3F6807F0F0010909104F7A5C076835
:10082000D74047600A4F3F6807F4E051890A0B4FF1
:100830007A5C4768D7408760054F3F6807F460419E
:10084000490B064F7A5C4768D740C760F0BD00008F
:10085000083802400024F40000127A00140000203E
:1008600010B5044600BF02210A4800F021F8002814
:10087000F9D02146074800F027F800BF01210548BC
:1008800000F016F80028F9D0024800F01AF8C0B2BB
:1008900010BD00000030014021B1028842F040024A
:1008A000028004E002884FF6BF731A40028070474E
:1008B0000246002013890B400BB1012000E000200C
:1008C00070470146888970478181704710B50022C2
:1008D000028802F441520B884C8823438C882343BE
:1008E000CC8823430C8923434C8923438C8923439D
:1008F000CC8923431A430280838B4FF2FF74234039
:1009000083830B8A038210BD0CB5002001900090F8
:100910003448006840F480303249086000BF3148F4
:10092000006800F4003000900198401C019000988D
:1009300018B90198B0F5A04FF1D12A48006800F429
:10094000003010B10120009001E0002000900098DC
:10095000012846D123484030006840F080502149AA
:10096000403108602048006840F440401E4908605B
:100970001C48083000681B490831086008460068B8
:1009800040F4004008600846006840F4A050086049
:100990001648091F0860081F006840F08070091F92
:1009A000086000BF0F48006800F000700028F9D010
:1009B00040F205700E4908600A480830006820F0CF
:1009C00003000849083108600846006840F002004A
:1009D000086000BF03480830006800F00C000828D9
:1009E000F8D10CBD003802400070004008544007A8
:1009F000003C024010B51548006840F470001349EF
:100A000008601348006840F00100114908600020A8
:100A10000F49083108600E4800680E4908400C492B
:100A200008600D48091D0860081F006820F4802038
:100A3000091F0860002006490C310860FFF764FFB9
:100A40004FF0006001498039086010BD88ED00E07A
:100A500000380240FFFFF6FE1030002410B540F2CF
:100A60002551074800F036F8012808D1044800F065
:100A7000EBF8C4B240F22551014800F003F810BD74
:100A80000010014010B50022002340F66A14A14274
:100A900000D100BF0A1201249440A3B2DC430480B9
:100AA00010BD21B1828942F40052828104E0828922
:100AB0004DF6FF731A408281704702460020B1F55F
:100AC000007F00D100BF13880B400BB1012000E074
:100AD0000020704770B50246002400230025002046
:100AE00040F66A16B14200D100BFC1F3421501F0D1
:100AF0001F03012606FA03F3012D02D19689334024
:100B000006E0022D02D1168A334001E0968A334076
:100B10000C12012606FA04F41688344013B10CB105
:100B2000012000E0002070BDF0B50346002400263F
:100B30000025002040F66A17B94200D100BF1846D0
:100B4000C1F3421401F01F06012707FA06F5012C34
:100B500001D10C3004E0022C01D1103000E014303F
:100B60001AB107682F43076002E00768AF430760C8
:100B7000F0BD00002DE9FF4705460E460024A146C2
:100B800000BFA046B08900B100BF2C8A24F44054B5
:100B9000F08804432C82AC8941F20C608443B08815
:100BA00031890843718908430443AC81AC8A24F439
:100BB0004074B0890443AC826846FFF7DDFD2048ED
:100BC000854202D01F48854202D1DDF80C9001E039
:100BD000DDF80890A88900F4004040B109EBC90095
:100BE00000EB091031684900B0FBF1F707E009EBB1
:100BF000C90000EB091031688900B0FBF1F76420EF
:100C0000B7FBF0F004012009642101FB1078A889EA
:100C100000F4004040B1322000EBC800B0FBF1F01E
:100C200000F00700044308E0322000EB08106421C4
:100C3000B0FBF1F000F00F0004432C81BDE8FF870A
:100C4000001001400014014001468888C0F30800EC
:100C50007047C1F308028280704730380A2801D2F9
:100C6000012070470020704770B504460D4600BF54
:100C700040210548FFF721FF0028F9D0A1B2024822
:100C8000FFF7E7FF204670BD001001401CB50121B1
:100C90002020FFF751FD022014490871000208606E
:100CA000002088714871C8711148FFF79EFC092225
:100CB00011460F48FFF7E1FC01200E4908604FF490
:100CC000E13000F0B1F800F02FF80BA0FFF7D0FAF8
:100CD000694601A800F084F89DF800209DF80410F2
:100CE0000CA0FFF7C5FA00BFFEE7000000000020DF
:100CF00000140240A4824242546869732069732040
:100D000073706920666C61736820746573740D0A72
:100D1000000000006D69643D25303258206469642C
:100D20003D253032580D0A0010B501210803FFF7A8
:100D300013FD01210220FFF7FFFC02202349087167
:100D40003820086000208871032048710020C87195
:100D50001F48FFF74AFC052203211D48FFF78DFCC1
:100D6000052204211A48FFF788FC0522114618487D
:100D7000FFF783FC012015490871800308600020FB
:100D80008871032048710020C8711148FFF72DFCBD
:100D900001201049086000200F4908804FF482703C
:100DA0004880002088800220C880012008814002FD
:100DB0004881182088810020C8810848FFF786FDF7
:100DC00001210648FFF768FD10BD0000000000206B
:100DD00000040240B882404234000020003001404C
:100DE00070B504460D4600200D4908609020FFF7BD
:100DF00037FD0020FFF734FD0020FFF731FD002014
:100E0000FFF72EFD0020FFF72BFD20700020FFF7DD
:100E100027FD287001200349C1F8B80270BD000009
:100E2000B88240420080404210B5044601211020A3
:100E3000FFF792FC01210846FFF77EFC02201D49C6
:100E400008714FF4C0600860002088710320487169
:100E50000020C8711848FFF7C8FB0722092116486F
:100E6000FFF70BFC07220A211348FFF706FC134883
:100E70000460002011498880C880088188810C2086
:100E800048810F48FFF776FE012240F225510C48B9
:100E9000FFF74AFE25200B49087000204870887033
:100EA0000120C8700846FFF70BFC01210448FFF73A
:100EB000F8FD10BD000000200000024024000020CA
:100EC00000100140080000204FF04070E1EE100AD1
:100ED0007047303132333435363738394142434444
:100EE00045464030580030313233343536373839A2
:100EF00061626364656640307800040000080000A9
:100F00000000000000020001000010002C0F00088B
:100F10000000002024000000C4010008500F000859
:100F20002400002084060000E0010008000000000A
:100F300000000000000000000000000000000000B1
:100F4000000000000102030401020304060708096F
:0400000508000231BC
:00000001FF
