:020000040800F2
:10000000F807002051020008590200085B020008AE
:100010005D0200085F0200086102000800000000A5
:100020000000000000000000000000006302000863
:10003000650200080000000067020008690200086D
:100040006B0200086B0200086B020008BD15000877
:100050006B0200086B0200085D0A00086B020008D2
:100060006B0200086B0200086B0200086B020008BC
:100070006B0200086B0200086B0200086B020008AC
:100080006B0200086B0200086B0200086B0200089C
:100090006B0200086B0200086B0200086B0200088C
:1000A0006B0200086B0200086B0200086B0200087C
:1000B0006B0200086B0200086B0200086B0200086C
:1000C0006B0200086B0200086B0200086B0200085C
:1000D0006B020008B11800086B020008091900083B
:1000E0006B020008590F00086B0200086B02000841
:1000F0006B0200086B0200086B0200086B0200082C
:100100006B0200086B0200086B0200086B0200081B
:100110006B0200086B0200086B0200086B0200080B
:100120006B0200086B0200086B0200086B020008FB
:100130006B0200086B0200086B0200086B020008EB
:100140006B0200086B0200086B0200086B020008DB
:100150006B0200086B0200086B0200086B020008CB
:100160006B0200086B0200086B0200086B020008BB
:100170006B0200086B0200086B0200086B020008AB
:100180006B0200086B02000800F002F800F050F863
:100190000AA090E8000C82448344AAF10107DA45E2
:1001A00001D100F045F8AFF2090EBAE80F0013F0E4
:1001B000010F18BFFB1A43F001031847A0200000ED
:1001C000C0200000103A24BF78C878C1FAD852077E
:1001D00024BF30C830C144BF04680C6070470000C1
:1001E0000023002400250026103A28BF78C1FBD840
:1001F000520728BF30C148BF0B607047642900F028
:10020000B780782900F0F080732900F0B4820020D4
:1002100070471FB502F000F800F0C0FB040000209A
:10022000002101F0E3FF401C60601FBD10B510BD50
:1002300000F08FFB1146FFF7ECFF01F0B1FC00F07E
:10024000BFFB03B4FFF7F2FF03BC00F0FFFB0000AD
:100250000948804709480047FEE7FEE7FEE7FEE75A
:10026000FEE7FEE7FEE7FEE7FEE7FEE70448054996
:10027000054A064B7047000049180008890100082C
:10028000F8010020F8070020F8030020F803002000
:100290000FB4044910B503AA029800F071FA10BC1B
:1002A0005DF814FB340000200FB41CB5074B06AA00
:1002B0007B4469460090059800F033FA00206946B7
:1002C00000F042FA1CBC5DF814FB0000950400002D
:1002D00070B5044685690068C10601D5302600E086
:1002E0002026C00707D070BDD4E9012130469047D1
:1002F000206A401C20626D1EF6D570BD70B50446A4
:1003000085690078C00707D170BDD4E9012120209C
:100310009047206A401C20626D1EF6D570BD70B5F6
:100320000C460546012A05D02878800600D5EA69E2
:10033000002302E0012305E05B1C934202D2E05C53
:100340000028F9D1A869E618C01AA861286A1844DB
:1003500028622846FFF7BCFF04E0D5E9012114F824
:10036000010B9047B442F8D32846FFF7C7FF70BD92
:100370002DE9F0410646002410687529314616A57E
:1003800010D0AFF30080002802DA404213A507E046
:1003900031688A0701D512A502E0490704D511A5E5
:1003A000012401E0AFF3008000210A2206F12407B6
:1003B00009E0B0FBF2FCB0FBF2F302FB1C003030B2
:1003C00078541846491C0028F3D123462A46304663
:1003D000BDE8F04100F046B9000000002D0000002B
:1003E0002B0000002000000070B504460D46214699
:1003F0001068AFF300802188090502D50F4A7A44BE
:1004000002E00E4A7A440E32002104F1240305E092
:1004100000F00F060009965D5E54491C0028F7D1D4
:1004200020780023000704D5702D02D009B10223E3
:1004300011322046BDE8704000F014B9201E0000C3
:100440002DE9F05F894604464FF0000ADFF824B139
:10045000FB44C0F820A02046E168884700287DD0F2
:10046000252806D0D4E901219047206A401C20624B
:10047000F1E700255F462046E168884720280646C8
:1004800007DB312E05D2B81910F8200C08B105434E
:10049000F1E7A80701D525F00405C4F81CA0002742
:1004A000C4F818A02A2E09D0304601F044FB38B316
:1004B00004EB8708303EC8F8186019E059F8041BAF
:1004C000204604EB87029161E1688847012F0646C8
:1004D00018D1E069002820DA25F020051DE0D8F8C1
:1004E000180000EB800006EB40003038C8F8180018
:1004F0002046E1688847064601F01DFB0028EED142
:10050000012F0AD02E2E08D12046E16888477F1C93
:100510000646022F45F02005C4DBA069002803DA57
:10052000404245F00105A061E80701D025F0100523
:10053000A6B1A6F14100192802D8203645F400657D
:100540004A463146204625604D46FFF757FE60B1CA
:10055000012807D0ED1D25F0070000E007E000F1BD
:10056000080978E705F1040975E730467AE7206A5B
:10057000BDE8F09FF61D000070B5064600F06EF86D
:100580000468054630460A22002100F00BF92C6071
:1005900070BD0000014A00F03DB900005400002089
:1005A00030B505460B462A4613F8014B12F8010BED
:1005B00008B1A042F8D01CB1002802D06D1CF1E7B0
:1005C000284630BD4FF000020429C0F0128010F020
:1005D000030C00F01B80CCF1040CBCF1020F18BF1F
:1005E00000F8012BA8BF20F8022BA1EB0C0100F0B2
:1005F0000DB85FEAC17C24BF00F8012B00F8012B85
:1006000048BF00F8012B70474FF0000200B51346B9
:1006100094469646203922BFA0E80C50A0E80C5022
:10062000B1F12001BFF4F7AF090728BFA0E80C50D3
:1006300048BF0CC05DF804EB890028BF40F8042BCC
:1006400008BF704748BF20F8022B11F0804F18BF39
:1006500000F8012B7047704770477047004870479B
:10066000980100202DE9F0470D4699469246044630
:1006700000F124080168880604D5E06921F0100122
:10068000216000E00120A84201DD471B00E00027B7
:10069000A1697A1902EB0900081AA0612078C00646
:1006A00002D42046FFF714FE002608E0D4E9012119
:1006B0001AF806009047206A401C761C20624E45BE
:1006C000F4DB2078C0060AD52046FFF701FE06E0DD
:1006D000D4E9012130209047206A401C2062381E56
:1006E000A7F10107F4DC07E0D4E9012118F80500BF
:1006F0009047206A401C2062281EA5F10105F3DC0A
:100700002046FFF7FBFD2078000602D50220BDE859
:10071000F0870120FBE7000001694A1C02610878AC
:10072000704700B58FB0CDE9013100210591054931
:100730007944CDE9031011466846FFF781FE0FB0FA
:1007400000BD0000E5FFFFFF0A6802F8010B0A6028
:10075000704710B5436913B1AFF3008001E0FFF7B4
:10076000DEFD012010BD127800F124010A70002284
:100770004A700122EDE711684FF0FF32E9E700000F
:10078000074B70B50D467B44FFF7CBFF0446284668
:1007900000F0BDF810B14FF0FF3070BD204670BDC5
:1007A000F31300002DE9F04791460F4680460446BA
:1007B000002614F8015B2DB100F052F80068405D8E
:1007C000C007F6D12B2D02D02D2D18D0641E4A461D
:1007D0003946204600F04CF827B13968A14201D1D2
:1007E000C7F800804FF0020471050BD54042002885
:1007F00003DDFFF733FF0460A007BDE8F08746F490
:100800008066E4E70028F8DAFFF728FF04606FF05D
:100810000040F2E72DE9F04115460E46040002D1F2
:100820002C6804B90BA4204600F085F80444207815
:1008300070B127463146384600F06DF80444207800
:1008400010B1002004F8010B38462C60BDE8F0819F
:100850000027F9E7000000000048704798010020D9
:1008600010B500F09BF8001D10BD00BF81190000FD
:100870002DE9F05F824615468B4600270AF10104F8
:10088000B9460078302801D09DB113E014F8010B6F
:100890000127782803D0582801D045B10AE00DB1CE
:1008A000102D07D1002714F8010B102502E00825B0
:1008B00000E00A250026B0460EE005FB080005FB17
:1008C00006F101271FFA80F801EB1046B6F5803FCC
:1008D00000D3B94614F8010B294600F063F800284C
:1008E000EBDABBF1000F05D00FB1641E00E05446F7
:1008F000CBF80040B9F1000F06D0FFF7AFFE0221A0
:100900000160C81EBDE8F09F48EA0640FAE7007B98
:1009100000F08000704730B503461D781DB10A46CF
:1009200003E0AC4201D1181A30BD12F8014B002C83
:10093000F7D15B1CF1E730B503461D783DB10A469F
:1009400012F8014B1CB1AC42FAD15B1CF5E7181A46
:1009500030BD7546FFF780FFAE4605006946534639
:1009600020F00700854618B020B5FFF77FFCBDE8F2
:1009700020404FF000064FF000074FF000084FF006
:10098000000B21F00701AC46ACE8C009ACE8C00997
:10099000ACE8C009ACE8C0098D4670470048704714
:1009A000B80100203A2800D2303820F02002412A35
:1009B00001D3A2F13700884201D34FF0FF307047D6
:1009C0000446AFF300802046FFF73BFC4FF0013CAC
:1009D00050F8042B51F8043B9A4221D1A2EB0C03AE
:1009E000934313EACC1317D150F8042B51F8043B6E
:1009F0009A4215D1A2EB0C03934313EACC130BD10B
:100A000050F8042B51F8043B9A4209D1A2EB0C0395
:100A1000934313EACC13DBD04FF00000704700BFC4
:100A2000D01A01BAB1FA81F101F0180122FA01F0ED
:100A3000CB40C1F12001DBB2C0B2C01A2CFA01F3E5
:100A4000D11A914311EAC311E6D170470149182028
:100A5000ABBEFEE7260002007047000010B5012083
:100A600000F016F8012808D1044908600020044964
:100A7000C1F8A002012000F005F810BDA882424292
:100A8000008042420149086070470000143C014068
:100A900001460020034A12680A400AB1012000E022
:100AA00000207047143C0140002123498279002A2C
:100AB0003AD00A46126803689A430B461A600A1D28
:100AC000126803689A430B1D1A60027911440A6880
:100AD00003681A430A60184A0832126803689A4386
:100AE000154B08331A601A1D126803689A43124B9B
:100AF0000C331A604279102A0ED11A1F126803684B
:100B00001A430D4B08331A601A1D126803681A4302
:100B1000094B0C331A600DE00749427911440A6809
:100B200003681A430A6005E0027911440A68036801
:100B30009A430A6070470000003C0140F0B50A4645
:100B400000210023002400BF3DE0012505FA01F348
:100B5000156805EA03049C4234D105684F0003265A
:100B6000BE40B543056015794E00B5400668354373
:100B700005601579012D02D01579022D16D18568F1
:100B80004F000326BE40B543856055794E00B54001
:100B9000866835438560456801268E40B5434560CB
:100BA000456896798E40B6B235434560C5684F00BA
:100BB0000326BE40B543C560D5794E00B540C66832
:100BC0003543C560491C1029BFD3F0BDF0B50023E3
:100BD00000244D07ED0E02FA05F3CE1000F12005BA
:100BE00055F826504E07F70E0F26BE40B543CF10DE
:100BF00000F1200646F82750CE1000F1200555F8E8
:100C0000265045EA0304CE1000F1200545F82640A1
:100C1000F0BD000070B5002100230F22C4781CB382
:100C2000174C246804F4E064C4F5E064C4F30721BD
:100C3000C1F10404E3B20A4144789C40E1B28478F3
:100C4000144021430C07210E0E4C057861550478A1
:100C500004F01F050124AC4005786D11AD0005F1CD
:100C6000E025C5F8004109E0047804F01F050124DF
:100C7000AC40054D0678761145F8264070BD000061
:100C80000CED00E000E400E080E100E002490143F7
:100C9000024A1160704700000000FA050CED00E008
:100CA000014908627047000000000E4229B1064A5F
:100CB00012680243044B1A6004E0034A126882433C
:100CC000014B1A60704700003038024029B1064AD3
:100CD00012680243044B1A6004E0034A126882431C
:100CE000014B1A60704700004038024029B1064AA3
:100CF00012680243044B1A6004E0034A12688243FC
:100D0000014B1A607047000044380240F0B50021E2
:100D100000220024022500260223324F3F6807F0FC
:100D20000C0121B1042905D0082937D105E02E4F47
:100D3000076036E02D4F076033E02A4F3F1F3F68C2
:100D4000C7F38056274F3F1F3F6807F03F036EB140
:100D5000264FB7FBF3F7DFF88CC0ACF1040CDCF8DE
:100D600000C0CCF3881C07FB0CF40CE01E4FB7FB53
:100D7000F3F7DFF870C0ACF1040CDCF800C0CCF382
:100D8000881C07FB0CF4174F3F1F3F68C7F3014750
:100D90007F1C7D00B4FBF5F7076002E0124F07608F
:100DA00000BF00BF0F4F3F6807F0F0010909104F67
:100DB0007A5C0768D74047600A4F3F6807F4E05104
:100DC000890A0B4F7A5C4768D7408760054F3F68B8
:100DD00007F46041490B064F7A5C4768D740C7600B
:100DE000F0BD0000083802400024F40000127A0030
:100DF0004400002010B501460022002300204A11C3
:100E0000012A02D10A4C236808E0022A03D1084CC7
:100E10007034236802E0064C7434236801F01F022A
:100E2000012494401C400CB1012000E0002010BDC2
:100E3000003802400149086070470000800E4742B8
:100E400001490860704700003C0E4742002100F451
:100E50004072B2F5407F08D1094A116821F4F811B7
:100E6000084A02401143064A1160054A6832126876
:100E7000C0F30B031A43024B68331A60704700003B
:100E800008380240FFFCFF0F38B5024600240094EA
:100E900000230020CA24184D2C6053242C6041B13B
:100EA000154C1C3C24681443134D1C3D2C60012040
:100EB0001EE0114C1C3C246894430F4D1C3D2C60DB
:100EC00000BF0D4C183C246804EA1223009C641CEB
:100ED0000094009CB4F5803F01D0002BF1D0064C6B
:100EE000183C246804EA12240CB9002000E0012018
:100EF000FF24014D2C6038BD2428004000B58FB080
:100F0000342102A8FFF780FB0A4A4FF480710020C9
:100F100000F0A0F8074880780090064843780278EF
:100F200005A102A8FFF7C0F902A908A0FFF7B0F9D0
:100F30000FB000BD7400002025302E32643A2530F9
:100F40002E32643A25302E3264000000636C6F63E9
:100F50006B203A202573200010B54FF4805000F02C
:100F6000D9F848B1012005490860000300F030F8C5
:100F70004FF40030FFF786FD10BD00004000002058
:100F8000014600BF080900EB8000420001F00F009D
:100F90001044C0B270470146002204E0501CC2B2A7
:100FA000A1F10A00C1B20A29F8DA100741EA10607B
:100FB0007047000081B241F08001044A126802F0DB
:100FC000800262EA0101014A116070470C2800406A
:100FD000002101098AB242F08002044B1B6803F031
:100FE000800363EA0202014B1A6070470C2800403C
:100FF00008B50022009200200021104A126802F079
:101000004002CAB9421E0D4B1A6000BF0B4A12685B
:1010100002F04001009A521C0092009AB2F5803F03
:1010200001D00029F2D0054A126802F040020AB14C
:10103000012002E0002000E0012008BD0C28004053
:101040000348006820F080000149086070470000F4
:101050000C2800402DE9F04106460F4614460025B5
:10106000B7F5807F02D11748056802E01548001DDA
:101070000568C5F305402070C5F30620607005F0D3
:101080007F00A07005F48000000CE070C5F30560DF
:10109000207305F08040A06005F0803060607EB96C
:1010A0002078FFF76DFF20706078FFF769FF6070B0
:1010B000A078FFF765FFA070207BFFF761FF20732A
:1010C000BDE8F0811C28004070B506460C4600259E
:1010D0000E4800680E4900EA0105280CE070C5F3CF
:1010E0000420607005F03F00A070C5F3423020700E
:1010F0005EB9E078FFF744FFE0706078FFF740FFEB
:101100006070A078FFF73CFFA07070BD042800401D
:101110003FFFFF0030B501460020002200230C4CA9
:10112000246804F004020A4C383C24680C4002EAAB
:10113000D13544EA0503064C343C246804EA111214
:101140001BB194B20CB1012000E0002030BD0000C2
:101150004028004070B506460C4600250F48006840
:101160000F4900EA0105C5F305402070C5F30620CC
:10117000607005F07F00A07005F48000000CE07046
:101180005EB92078FFF7FCFE20706078FFF7F8FE6C
:101190006070A078FFF7F4FEA07070BD00280040DA
:1011A0007F7F7F00CA22174B1A6053221A6091B1C9
:1011B000144A1C3A126820F004031A43114B1C3BDA
:1011C0001A60104A1C32126800F004031A430D4BD7
:1011D0001C331A6011E00B4A1C3A126820F0040319
:1011E0009A43084B1C3B1A60064A1C32126800F0F6
:1011F00004039A43034B1C331A60FF22014B1A600D
:10120000704700002428004030B504460025CA205D
:101210001549086053200860FFF7EAFE00B91DE099
:1012200011481C38006820F040000F491C39086044
:1012300008460068216808430B491C3908600A49C0
:101240001439A068086008460068A18840EA014097
:10125000054914390860FFF7F3FE0125FF20024914
:101260000860284630BD00002428004008B501462B
:101270000020009004480090009800EB810000904E
:101280000098006808BD0000502800402DE9F0419A
:1012900005460E461446002765B93648006800F03A
:1012A000400000B102E00020E07000BFA06800B97B
:1012B00019E018E02F48006800F0400020B12078C5
:1012C000FFF75EFE074602E00020E07000BFA06866
:1012D00020B9207BFFF754FE074604E0207BFFF790
:1012E0004FFE074600BF95B120780004617840EAC0
:1012F0000120A1780843E17840EA0140217B40EADF
:101300000160A1680843616840EA01071BE020789A
:10131000FFF741FE4FEA00486078FFF73CFE48EADD
:101320000028A078FFF737FE48EA0008E07848EA8E
:101330000048207BFFF72FFE48EA0060A1680843C1
:10134000616840EA0107CA200A491C31086053203D
:101350000860B6F5807F03D106481430076002E0CC
:10136000044818300760FF2002491C310860BDE8BE
:10137000F0810000082800402DE9F04105460C46A8
:10138000002600274DB9607800F01000102804D125
:10139000607820F010000A30607005B908E06078CD
:1013A000FFF7EEFD0646A078FFF7EAFD064600BF10
:1013B00055B1E0780004617840EA0120A178084343
:1013C000217840EA413611E0E078FFF7E4FD4FEA8A
:1013D00000486078FFF7DFFD48EA0028A078FFF7B3
:1013E000DAFD48EA0008207848EA4036CA20124967
:1013F000086053200860FFF7FBFD08B9002714E0E0
:101400000E4830400C4920390860FFF719FE0A48A1
:101410001C38006800F0200030B900F0EDF808B981
:10142000002702E0012700E00127FF2002490860B1
:101430003846BDE8F0810000242800403FFFFF004F
:101440002DE9F04105460C46002600274DB92E48EF
:10145000006800F0400000B102E00020E07000BF32
:101460000DE02948006800F0400020B12078FFF727
:1014700087FD064602E00020E07000BF00BF55B1C6
:1014800020780004617840EA0120A1780843E178DF
:1014900040EA014611E02078FFF77DFD4FEA004861
:1014A0006078FFF778FD48EA0028A078FFF773FD21
:1014B00048EA0008E07848EA0046CA2012491C3190
:1014C000086053200860FFF793FD08B9002713E078
:1014D0000E4830400C4908390860FFF7B1FD0A4852
:1014E000006800F0200030B900F086F808B9002745
:1014F00002E0012700E00127FF2003491C310860BA
:101500003846BDE8F0810000082800407F7F7F005A
:10151000CA21054A1160532111600349103908603E
:10152000FF211160704700002428004008B51049D1
:101530000020FFF70FFE0E48807800900C4843789B
:1015400002780CA11048FEF7AFFE10490120FFF70A
:10155000BBFD0E48007800900C4883784278C17833
:101560000BA0FEF795FE084911A0FEF791FE08BDFD
:101570000C00002025302E32643A25302E32643A99
:1015800025302E3264000000A4000020100000204E
:1015900044617465203230253032782F253032781E
:1015A0002F25303278205765656B3A25780D0A0073
:1015B00054696D653A203A202573200010B54FF428
:1015C0008040FFF7A7FD80B10848006880F0010067
:1015D0000749C1F8A4020120064908608003FFF70B
:1015E000F7FC4FF48000FFF74DFA10BDA482424291
:1015F000008042423C00002008B5002200920020FA
:101600000021CA22134B1A6053221A60114A183A59
:10161000126822F0A0020F4B183B1A6000BF0D4A5F
:10162000183A126802F02001009A521C0092009AA7
:10163000B2F5003F01D00029F1D0064A183A1268ED
:1016400002F020020AB1012000E00020FF22014B3D
:101650001A6008BD24280040CA210A4A116053219B
:10166000116008491C39096821F00701054A1C3A34
:1016700011601146096801431160FF21014A1160A0
:10168000704700002428004018B50146002300934D
:1016900000220020CA23194C23605323236049B140
:1016A000164B1C3B1B6843F48063144C1C3C2360AA
:1016B00001201FE0114B1C3B1B6823F480630F4C7F
:1016C0001C3C236000BF0D4B183B1B6803F0040259
:1016D000009B5B1C0093009BB3F5803F01D0002A68
:1016E000F1D0064B183B1B6803F004030BB9002034
:1016F00000E00120FF23014C236018BD2428004096
:1017000008B500220092044A0092009A02EB80027F
:101710000092009A116008BD5028004030B50022A8
:101720008B071C0F0F2303FA04F20B4B8C1053F89A
:1017300024309343084C8D1044F8253023468C10F8
:1017400053F824308C07240F00FA04F42343024C8E
:101750008D1044F8253030BD083801400CB500200C
:10176000019000903448006840F4803032490860AD
:1017700000BF3148006800F4003000900198401C20
:101780000190009818B90198B0F5A04FF1D12A48FE
:10179000006800F4003010B10120009001E000204A
:1017A00000900098012846D123484030006840F05E
:1017B00080502149403108602048006840F4404092
:1017C0001E4908601C48083000681B490831086041
:1017D0000846006840F4004008600846006840F48D
:1017E000A05008601648091F0860081F006840F0F4
:1017F0008070091F086000BF0F48006800F000708B
:101800000028F9D040F205700E4908600A480830F7
:10181000006820F0030008490831086008460068A5
:1018200040F00200086000BF03480830006800F084
:101830000C000828F8D10CBD0038024000700040B0
:1018400008544007003C024010B51548006840F4B9
:101850007000134908601348006840F00100114906
:10186000086000200F49083108600E4800680E49E2
:1018700008400C4908600D48091D0860081F0068F1
:1018800020F48020091F0860002006490C31086000
:10189000FFF764FF4FF0006001498039086010BD18
:1018A00088ED00E000380240FFFFF6FE1030002413
:1018B00010B540F22551104800F07AF801281AD1ED
:1018C0000D4800F02FF9C4B20C480D490968445482
:1018D0000B480068401C0A490860232C03D00846C6
:1018E0000068402802D301200649086040F22551D3
:1018F000014800F035F810BD00100140D60000206E
:101900001C0000202000002010B540F22551104896
:1019100000F04EF801281AD10D4800F003F9C4B2C6
:101920000C480D49096844540B480068401C0A499A
:101930000860232C03D008460068402802D3012009
:101940000649086040F22551014800F009F810BD31
:10195000004800401601002024000020280000203C
:1019600010B50022002340F66A14A14200D100BF46
:101970000A1201249440A3B2DC43048010BD21B1BB
:10198000828942F40052828104E082894DF6FF731D
:101990001A408281704702460020B1F5007F00D1D5
:1019A00000BF13880B400BB1012000E000207047FE
:1019B00070B50246002400230025002040F66A1678
:1019C000B14200D100BFC1F3421501F01F0301264F
:1019D00006FA03F3012D02D19689334006E0022D69
:1019E00002D1168A334001E0968A33400C12012658
:1019F00006FA04F41688344013B10CB1012000E05B
:101A0000002070BDF0B5034600240026002500200C
:101A100040F66A17B94200D100BF1846C1F342141C
:101A200001F01F06012707FA06F5012C01D10C3041
:101A300004E0022C01D1103000E014301AB1076824
:101A40002F43076002E00768AF430760F0BD000066
:101A50002DE9FF4705460E460024A14600BFA046DB
:101A6000B08900B100BF2C8A24F44054F0880443AC
:101A70002C82AC8941F20C608443B08831890843E0
:101A8000718908430443AC81AC8A24F44074B08962
:101A90000443AC826846FFF739F92048854202D0FA
:101AA0001F48854202D1DDF80C9001E0DDF8089076
:101AB000A88900F4004040B109EBC90000EB09100F
:101AC00031684900B0FBF1F707E009EBC90000EB12
:101AD000091031688900B0FBF1F76420B7FBF0F022
:101AE00004012009642101FB1078A88900F400405A
:101AF00040B1322000EBC800B0FBF1F000F007006D
:101B0000044308E0322000EB08106421B0FBF1F040
:101B100000F00F0004432C81BDE8FF870010014056
:101B20000014014001468888C0F308007047C1F3E3
:101B300008028280704730380A2801D2012070479D
:101B40000020704712E000214FF0E022116145F2C1
:101B500007215161002191610121116100BF4FF006
:101B6000E021096901F480310029F8D00100A0F1D9
:101B70000100E8D14FF0E0221161704770B50446D2
:101B80000D4600BF40210548FFF705FF0028F9D0AA
:101B9000A1B20248FFF7CBFF204670BD0010014004
:101BA00000BF4FF44070FFF771F801212020FFF7CC
:101BB0007DF801210846FFF779F80120AE49087148
:101BC0004FF4E0600860002088714871C871AB482C
:101BD000FEF7B4FF0020A84908710120086000202A
:101BE00088714871C871A548FEF7A8FF0020A44974
:101BF00008600120A349C1F8A402A1490831086086
:101C000000210846FFF78AFD01209F490860002057
:101C100008710C204871012088710846FEF744FFC6
:101C200006209A490870002048700420887001201E
:101C3000C8700846FEF7EEFF4FF4E13000F036FAC8
:101C40004FF4165000F082FA6420FFF77BFF90A05B
:101C5000FEF71EFB0020FFF709FB46F26661884293
:101C600013D000214FF48070FFF70EF900F05EF9F9
:101C700000F0FEF930221621202000F0ADF946F2E6
:101C800066610020FFF73CFD0EE04FF48070FFF727
:101C900091F94FF40030FEF7F5FE00F047F93022DD
:101CA0001621202000F098F980A0FEF7F1FAE1E07B
:101CB0008348006830B1FFF739FCFFF71FF90020B7
:101CC0007F4908607F480068C0B100207D490860F6
:101CD0006B48006808B9012000E0002068490860EE
:101CE0006848D0F8A80208B9012000E00020644943
:101CF000083108604FF4FA70FFF724FF724800685B
:101D000018B9724800680028D1D06F4800680128CF
:101D10007CD16FA17148FEF743FC002850D070A120
:101D20006E48FEF737FC044621466EA0FEF7B0FA77
:101D30006BA10020FEF72EFC044604B989E0214681
:101D400068A0FEF7A5FA2046FEF716FCA0F5FA609B
:101D50006649C87062A10020FEF71CFC044604B965
:101D600077E021465FA0FEF793FA2046FEF704FCD9
:101D70005E4948705AA10020FEF70CFC044604B9E5
:101D800067E0214657A0FEF783FA2046FEF7F4FBF2
:101D90005649887052A10020FEF7FCFB044604B9A6
:101DA00057E021464FA0FEF773FA2046FEF7E4FB0A
:101DB0004E4908700020FFF7DFFA4DA0FEF768FAE1
:101DC0004FA14648FEF7ECFB00283FD044A1434812
:101DD000FEF7E0FB0446214642A0FEF759FA40A177
:101DE0000020FEF7D7FB044604B932E021463DA0AF
:101DF000FEF74EFA2046FEF7BFFB4449087038A1B3
:101E00000020FEF7C7FB04460CB922E01EE0214685
:101E100034A0FEF73DFA2046FEF7AEFB3B49487082
:101E20002FA10020FEF7B6FB044604B911E02146BD
:101E30002CA0FEF72DFA2046FEF79EFB3349887052
:101E40000020FFF7FDFA32A0FEF722FA1E480068D4
:101E500000BF00201C490860314908601B49086028
:101E60003049086040211D48FEF7ACFB40212E4858
:101E7000FEF7A8FB1CE70000000000200014024051
:101E8000A08242420080424214000020080000204C
:101E90005468697320697320626C6520696E697487
:101EA0002066696E6973680D0A00000054686973E2
:101EB0002069732072746320746573740D0A0000C6
:101EC0003C000020400000202000002028000020CE
:101ED000444154452053455400000000D6000020E2
:101EE0002D000000703D25730D0A00001000002039
:101EF0004441544120736574206F6B0D0A0000004B
:101F000054494D4520534554000000000C0000206A
:101F100054494D4520736574206F6B0D0A00000015
:101F20001C000020240000201601002010B5012113
:101F30000807FEF7CBFE0120FEF7B2FE0120FEF7F8
:101F400079FF00BF6120FEF755FF0028FAD04FF45B
:101F50000070FEF77BFF0120FEF772FFFFF74CFBDE
:101F60007F201A494860F9208860002008600846F0
:101F7000FFF74AF90020FFF787FB0420FFF76CFB0F
:101F80000020FFF7C5FA4FF48040FFF721F8012148
:101F90008803FFF707F90120FFF776FB4FF4800075
:101FA0000B490860002008710820487101208871E1
:101FB0000846FEF779FD03200649087048708870CE
:101FC0000120C8700846FEF725FE10BD68000020FD
:101FD000140000200800002070B506460C46154687
:101FE00000214FF48070FEF74FFF00214FF4805026
:101FF000FFF7D8F800201B49C870084606704470E7
:1020000085704FF0004048600A46C10D0120FFF77F
:102010003DF94FF40030FEF735FD4FF40030124922
:102020000860002008710820487101208871084666
:10203000FEF73AFD29200D4908700020487088708D
:102040000120C8700846FEF7E5FD01210803FFF7EF
:10205000A9F801210802FEF717FF4FF48070FEF780
:10206000A9FF70BD740000201400002008000020AB
:1020700010B523200B49C8700420487024208870B4
:1020800001200870FFF778F940200749C87019202F
:10209000087055204870302088700120FFF7D0F973
:1020A00010BD0000100000200C00002010B50446F8
:1020B00001211020FEF71AFE01210846FEF7F6FD69
:1020C00002201D4908714FF4C0600860002088712B
:1020D000032048710020C8711848FEF72FFD072221
:1020E00009211648FEF772FD07220A211348FEF760
:1020F0006DFD13480460002011498880C880088164
:1021000088810C2048810F48FFF7A2FC012240F291
:1021100025510C48FFF776FC25200B49087000205C
:10212000487088700120C8700846FEF773FD0121D1
:102130000448FFF724FC10BD00000020000002400E
:1021400058000020001001400800002010B504468F
:1021500001218804FEF7BAFD01210220FEF7A6FD49
:1021600002201D4908714FF440600860002088710A
:10217000032048710020C8711848FEF7DFFC0722D1
:102180000A211648FEF722FD07220B211348FEF70D
:102190001DFD13480460002011498880C880088113
:1021A00088810C2048810F48FFF752FC012240F241
:1021B00025510C48FFF726FC27200B49087000200A
:1021C000487088700120C8700846FEF723FD012181
:1021D0000448FFF7D4FB10BD0000002000040240BB
:1021E00058000020004800400800002010B50029D9
:1021F0000AD00878002807D005487844FEF7E6FBA7
:10220000002801D0002010BD0248784410BD000015
:10221000820000007A0000004FF04070E1EE100AEA
:1022200070473031323334353637383941424344E0
:10223000454640305800303132333435363738393E
:102240006162636465664030780004000008000045
:102250000000000000020001000010008C230008B4
:102260000000002058000000C4010008E42300081A
:1022700058000020A0070000E00100081001000045
:1022800043000000F8FFFFFF004040404040404056
:102290004040414141414140404040404040404039
:1022A00040404040404040404005020202020202DD
:1022B000020202020202020202202020202020202C
:1022C0002020200202020202020290909090909040
:1022D00010101010101010101010101010101010FE
:1022E0001010101002020202020288888888888872
:1022F000080808080808080808080808080808085E
:102300000808080802020202400000000000000065
:1023100000000000000000000000000000000000BD
:1023200000000000000000000000000000000000AD
:10233000000000000000000000000000000000009D
:10234000000000000000000000000000000000008D
:10235000000000000000000000000000000000007D
:10236000000000000000000000000000000000006D
:10237000000000000000000000000000000000005D
:10238000000000000000000000000000000000004D
:10239000000000000000000000000000000000003D
:1023A000000000000000000000000000000000002D
:1023B000000000000000000000000000000000001D
:1023C000000000000000000000000000000000000D
:1023D00000000000010203040102030406070809CB
:0423E00000000000F9
:04000005080002519C
:00000001FF
