:020000040800F2
:1000000068060020290200083102000833020008B7
:10001000350200083702000839020008000000001D
:100020000000000000000000000000003B0200088B
:100030003D020008000000003F02000841020008E5
:10004000430200084302000843020008430200087C
:10005000430200084302000843020008430200086C
:10006000430200084302000843020008430200085C
:10007000430200084302000843020008430200084C
:10008000430200084302000843020008430200083C
:10009000430200084302000843020008430200082C
:1000A000430200084302000843020008430200081C
:1000B000430200084302000843020008430200080C
:1000C00043020008430200084302000843020008FC
:1000D00043020008430200084302000843020008EC
:1000E00043020008430200084302000843020008DC
:1000F00043020008430200084302000843020008CC
:1001000043020008430200084302000843020008BB
:1001100043020008430200084302000843020008AB
:10012000430200084302000843020008430200089B
:10013000430200084302000843020008430200088B
:10014000430200084302000843020008430200087B
:10015000430200084302000843020008430200086B
:10016000430200084302000843020008430200085B
:10017000430200084302000843020008430200084B
:10018000430200084302000800F002F800F03CF8C7
:100190000AA090E8000C82448344AAF10107DA45E2
:1001A00001D100F031F8AFF2090EBAE80F0013F0F8
:1001B000010F18BFFB1A43F00103184704040000A5
:1001C00024040000103A24BF78C878C1FAD8520736
:1001D00024BF30C830C144BF04680C6070470000C1
:1001E0000023002400250026103A28BF78C1FBD840
:1001F000520728BF30C148BF0B6070471FB500F0E1
:10020000D9F91FBD10B510BD00F031F81146FFF748
:10021000F5FF00F047F900F04FF803B4FFF7F2FFE5
:1002200003BC00F053F80000094880470948004724
:10023000FEE7FEE7FEE7FEE7FEE7FEE7FEE7FEE796
:10024000FEE7FEE704480549054A064B70470000F3
:100250003D040008890100086800002068060020AD
:10026000680200206802002070477047704775469A
:1002700000F028F8AE4605006946534620F0070016
:10028000854618B020B5FFF7DDFFBDE820404FF0F0
:1002900000064FF000074FF000084FF0000B21F070
:1002A0000701AC46ACE8C009ACE8C009ACE8C0093D
:1002B000ACE8C0098D4670470446AFF30080204685
:1002C000FFF7ABFF004870470800002001491820E5
:1002D000ABBEFEE7260002007047F0B50022012702
:1002E0004FF0030C0B6807FA02F52B40AB422CD100
:1002F000066853000CFA03F4A64306600E79D0F8A2
:1003000000E09E4046EA0E0606600E79012E01D0FE
:10031000022E12D18668A64386604E79D0F808E096
:100320009E4046EA0E0686604668AE4346604568D3
:100330008E799640B6B235434560C568A543C56021
:10034000CC799C40C3681C43C460521C102AC9D39A
:10035000F0BD0246002012690A4200D00120704719
:10036000018370470AB101837047418370470000E1
:10037000044A0029116801D0014300E08143116063
:1003800070470000303802400CB500222749009227
:100390000192086840F4803008604FF4A043086878
:1003A00000F4003001900098401C0090019810B9B2
:1003B00000989842F3D10868800334D50120019059
:1003C0001A484030026842F08052026018480268C1
:1003D00042F4404202601548083002680260026838
:1003E00042F400420260026842F4A0520260031F1D
:1003F000104A1A600A6842F080720A600A68920124
:10040000FCD50D4940F205720A60016821F0030134
:100410000160016841F0020101600168C1F38101DE
:100420000229FAD10CBD01920CBD00000038024037
:100430000070004019544007003C0240124810B5BB
:10044000016841F4700101601048016841F0010148
:1004500001600E4A00210832116002680C4B1A40FC
:100460000260031D0B4A1A60026822F480220260B7
:1004700006480C300160FFF787FF03494FF000602A
:100480008039086010BD000088ED00E000380240AF
:10049000FFFFF6FE103000244FF40010401EFDD286
:1004A0007047000001212020FFF762FF012110208A
:1004B000FFF75EFF01210846FFF75AFF384D4FF066
:1004C00001084FF4C06985F804800026C5F8009043
:1004D000AE71344C6E71EE7129462046FFF7FDFE79
:1004E000314F4FF4C04A29463846C5F800A0FFF7FF
:1004F000F4FE2E71C5F800804FF00308DFF8ACB0B1
:1005000085F80580EE7129465846FFF7E6FE2E7104
:100510001C20286085F80580EE7129463846FFF7D3
:10052000DCFE49462046FFF71BFF51463846FFF7E1
:1005300017FF1F4D661501215846FFF70AFF08B344
:1005400004213846FFF705FF20B308213846FFF79E
:1005500000FF0028EFD1286820F0030028602868F9
:1005600040F001002860002231462046FFF7FAFEE5
:10057000FFF792FF012231462046FFF7F3FEFFF717
:100580008BFFD8E7286820F003002860286840F037
:100590000200E7E7286820F0030028602868E1E708
:1005A0000000002000140240001002400000024041
:1005B000083802404FF04070E1EE100A704700002A
:1005C000E00500080000002008000000C401000849
:1005D000E80500080800002060060000E0010008AF
:0805E000000000000000000013
:0400000508000229C4
:00000001FF
