:020000040800F2
:100000009806002029020008310200083302000887
:10001000350200083702000839020008000000001D
:100020000000000000000000000000003B0200088B
:100030003D020008000000003F02000841020008E5
:10004000430200084302000843020008430200087C
:10005000430200084302000843020008430200086C
:10006000430200084302000843020008430200085C
:10007000430200084302000843020008430200084C
:10008000430200084302000843020008430200083C
:10009000430200084302000843020008430200082C
:1000A000430200084302000843020008430200081C
:1000B000430200084302000843020008430200080C
:1000C00043020008430200084302000843020008FC
:1000D000430200086507000843020008950700086E
:1000E00043020008430200084302000843020008DC
:1000F00043020008430200084302000843020008CC
:1001000043020008430200084302000843020008BB
:1001100043020008430200084302000843020008AB
:10012000430200084302000843020008430200089B
:10013000430200084302000843020008430200088B
:10014000430200084302000843020008430200087B
:10015000430200084302000843020008430200086B
:10016000430200084302000843020008430200085B
:10017000430200084302000843020008430200084B
:10018000430200084302000800F002F800F03CF8C7
:100190000AA090E8000C82448344AAF10107DA45E2
:1001A00001D100F031F8AFF2090EBAE80F0013F0F8
:1001B000010F18BFFB1A43F001031847700B000032
:1001C000900B0000103A24BF78C878C1FAD85207C3
:1001D00024BF30C830C144BF04680C6070470000C1
:1001E0000023002400250026103A28BF78C1FBD840
:1001F000520728BF30C148BF0B6070471FB500F0E1
:100200008FFD1FBD10B510BD00F06CF81146FFF753
:10021000F5FF00F041FC00F09EF803B4FFF7F2FF99
:1002200003BC00F0A3F800000948804709480047D4
:10023000FEE7FEE7FEE7FEE7FEE7FEE7FEE7FEE796
:10024000FEE7FEE704480549054A064B70470000F3
:10025000FD0600088901000898000020980600208B
:1002600098020020980200200FB4044910B503AA98
:10027000029800F009F810BC5DF814FB0C00002097
:100280007047704770470000074B70B50D467B44C0
:1002900000F011F80446284600F020F810B14FF0A5
:1002A000FF3070BD204670BDE307000001694A1CA5
:1002B00002610878704700B58FB0CDE901310021A7
:1002C000059105497944CDE903101146684600F0CF
:1002D0002EF80FB000BD0000E5FFFFFF007B00F02F
:1002E00080007047754600F03DF8AE46050069464F
:1002F000534620F00700854618B020B5FFF7A2FF4F
:10030000BDE820404FF000064FF000074FF0000816
:100310004FF0000B21F00701AC46ACE8C009ACE897
:10032000C009ACE8C009ACE8C0098D4670472DE9AA
:10033000F04106460024D6E90170F5688046304653
:1003400003E04146B847641C3046A8470028F8D16E
:100350002046BDE8F0810446AFF300802046FFF759
:100360005CFF00000048704734000020014918205D
:10037000ABBEFEE7260002007047F0B50A4600213A
:100380000023002400BF3DE0012505FA01F31568B4
:1003900005EA03049C4234D105684F000326BE40A1
:1003A000B543056015794E00B540066835430560D4
:1003B0001579012D02D01579022D16D185684F00CF
:1003C0000326BE40B543856055794E00B54086682A
:1003D00035438560456801268E40B54345604568D4
:1003E00096798E40B6B235434560C5684F00032606
:1003F000BE40B543C560D5794E00B540C6683543AB
:10040000C560491C1029BFD3F0BDF0B500230024FE
:100410004D07ED0E02FA05F3CE1000F1200555F858
:1004200026504E07F70E0F26BE40B543CF1000F101
:10043000200646F82750CE1000F1200555F826502A
:1004400045EA0304CE1000F1200545F82640F0BD32
:1004500070B5002100230F22C4781CB3174C246808
:1004600004F4E064C4F5E064C4F30721C1F10404BA
:10047000E3B20A4144789C40E1B2847814402143BD
:100480000C07210E0E4C05786155047804F01F0509
:100490000124AC4005786D11AD0005F1E025C5F8EB
:1004A000004109E0047804F01F050124AC40054D2B
:1004B0000678761145F8264070BD00000CED00E08E
:1004C00000E400E080E100E029B1064A126802433E
:1004D000044B1A6004E0034A12688243014B1A601D
:1004E000704700003038024029B1064A12680243C2
:1004F000044B1A6004E0034A12688243014B1A60FD
:10050000704700004038024029B1064A1268024391
:10051000044B1A6004E0034A12688243014B1A60DC
:100520007047000044380240F0B50021002200244A
:10053000022500260223324F3F6807F00C0121B14B
:10054000042905D0082937D105E02E4F076036E091
:100550002D4F076033E02A4F3F1F3F68C7F3805697
:10056000274F3F1F3F6807F03F036EB1264FB7FB91
:10057000F3F7DFF88CC0ACF1040CDCF800C0CCF36E
:10058000881C07FB0CF40CE01E4FB7FBF3F7DFF8F9
:1005900070C0ACF1040CDCF800C0CCF3881C07FB85
:1005A0000CF4174F3F1F3F68C7F301477F1C7D00C6
:1005B000B4FBF5F7076002E0124F076000BF00BF11
:1005C0000F4F3F6807F0F0010909104F7A5C076888
:1005D000D74047600A4F3F6807F4E051890A0B4F44
:1005E0007A5C4768D7408760054F3F6807F46041F1
:1005F000490B064F7A5C4768D740C760F0BD0000E2
:10060000083802400024F40000127A001400002090
:100610000CB50020019000903448006840F4803010
:100620003249086000BF3148006800F40030009093
:100630000198401C0190009818B90198B0F5A04F9E
:10064000F1D12A48006800F4003010B10120009078
:1006500001E0002000900098012846D12348403056
:10066000006840F08050214940310860204800680F
:1006700040F440401E4908601C48083000681B498F
:10068000083108600846006840F4004008600846E9
:10069000006840F4A05008601648091F0860081F51
:1006A000006840F08070091F086000BF0F480068B4
:1006B00000F000700028F9D040F205700E49086083
:1006C0000A480830006820F0030008490831086033
:1006D0000846006840F00200086000BF0348083088
:1006E000006800F00C000828F8D10CBD003802406A
:1006F0000070004008544007003C024010B5154807
:10070000006840F47000134908601348006840F026
:1007100001001149086000200F49083108600E48A7
:1007200000680E4908400C4908600D48091D086022
:10073000081F006820F48020091F08600020064977
:100740000C310860FFF764FF4FF000600149803909
:10075000086010BD88ED00E000380240FFFFF6FEA3
:100760001030002410B540F22551094800F0A2F8DD
:1007700001280CD1064800F057F9C4B221460448BC
:1007800000F057F940F22551014800F06BF810BD18
:100790000010014038B50020009040F225512A4851
:1007A00000F088F801284DD1274800F03DF9C4B287
:1007B000002507E0244800F037F9C0B20DF8050025
:1007C000681CC5B2681E1DF800002328F2D1302C29
:1007D00002D100201D490860612C02D101201B4973
:1007E0000860312C03D100201849091D0860622CD3
:1007F00003D101201549091D0860322C02D10020C7
:1008000013490860632C02D1012011490860332C80
:1008100003D100200E49091D086068460DA18842D9
:1008200003D101200A49091D086021460C4800F047
:1008300000F92146044800F0FCF840F22551024836
:1008400000F010F838BD000000480040A482424289
:10085000B4024242647574793D35302300000000D3
:100860000010014010B50022002340F66A14A14296
:1008700000D100BF0A1201249440A3B2DC430480DB
:1008800010BD21B1828942F40052828104E0828944
:100890004DF6FF731A408281704702460020B1F581
:1008A000007F00D100BF13880B400BB1012000E096
:1008B0000020704770B50246002400230025002068
:1008C00040F66A16B14200D100BFC1F3421501F0F3
:1008D0001F03012606FA03F3012D02D19689334046
:1008E00006E0022D02D1168A334001E0968A334099
:1008F0000C12012606FA04F41688344013B10CB128
:10090000012000E0002070BDF0B503460024002661
:100910000025002040F66A17B94200D100BF1846F2
:10092000C1F3421401F01F06012707FA06F5012C56
:1009300001D10C3004E0022C01D1103000E0143061
:100940001AB107682F43076002E00768AF430760EA
:10095000F0BD00002DE9FF4705460E460024A146E4
:1009600000BFA046B08900B100BF2C8A24F44054D7
:10097000F08804432C82AC8941F20C608443B08837
:1009800031890843718908430443AC81AC8A24F45B
:100990004074B0890443AC826846FFF7C5FD204827
:1009A000854202D01F48854202D1DDF80C9001E05B
:1009B000DDF80890A88900F4004040B109EBC900B7
:1009C00000EB091031684900B0FBF1F707E009EBD3
:1009D000C90000EB091031688900B0FBF1F7642011
:1009E000B7FBF0F004012009642101FB1078A8890D
:1009F00000F4004040B1322000EBC800B0FBF1F041
:100A000000F00700044308E0322000EB08106421E6
:100A1000B0FBF1F000F00F0004432C81BDE8FF872C
:100A2000001001400014014001468888C0F308000E
:100A30007047C1F308028280704712E000214FF036
:100A4000E022116145F207215161002191610121EC
:100A5000116100BF4FF0E021096901F480310029E4
:100A6000F8D00100A0F10100E8D14FF0E0221161BF
:100A70007047000070B504460D4600BF4021054890
:100A8000FFF70BFF0028F9D0A1B20248FFF7D1FF12
:100A9000204670BD0010014001212020FFF714FD09
:100AA00001211020FFF710FD0120274908714FF4A4
:100AB000C0600860002088714871C8712348FFF742
:100AC0005CFC0120204908714FF4C0400860002000
:100AD00088714871C8711E48FFF74FFC01201D49FD
:100AE00008601D49C1F8A8021C4908601C49C1F8EA
:100AF000B8024FF4E13000F05DF84FF4165000F00A
:100B0000A9F86420FFF799FF16A0FFF7ADFB1AA024
:100B100000F0F0F86420FFF790FF19A000F0EAF869
:100B20006420FFF78AFF19A000F0E4F86420FFF7C3
:100B300084FF1AA000F0DEF86420FFF77EFF1AA001
:100B400000F0D8F800BFFEE70000002000140240CB
:100B500000100240A482424200804242B40242425B
:100B6000000042425468697320697320626C6520FA
:100B7000746573740D0A000041540D0A00000000F2
:100B800041542B4C414444520D0A000041542B4E19
:100B9000414D45434B320D0A0000000041542B5299
:100BA000455345540D0A000041542B4E414D450D0F
:100BB0000A00000010B5044601211020FFF7A4FC34
:100BC00001210846FFF780FC02201D4908714FF4FF
:100BD000C060086000208871032048710020C8713F
:100BE0001848FFF7CAFB072209211648FFF70DFC3A
:100BF00007220A211348FFF708FC1348046000206D
:100C000011498880C880088188810C2048810F485C
:100C1000FFF7A0FE012240F225510C48FFF774FEB9
:100C200025200B4908700020487088700120C8708A
:100C30000846FFF70DFC01210448FFF722FE10BD16
:100C400000000020000002402400002000100140AD
:100C50000800002010B5044601218804FFF744FC79
:100C600001210220FFF730FC02201D4908714FF4DA
:100C70004060086000208871032048710020C8711E
:100C80001848FFF77AFB07220A211648FFF7BDFB39
:100C900007220B211348FFF7B8FB1348046000201C
:100CA00011498880C880088188810C2048810F48BC
:100CB000FFF750FE012240F225510C48FFF724FEB9
:100CC00027200B4908700020487088700120C870E8
:100CD0000846FFF7BDFB01210448FFF7D2FD10BD18
:100CE00000000020000402402400002000480040D2
:100CF0000800002070B505462C460BE000BF4021DF
:100D00000648FFF7CAFD0028F9D021780348FFF70D
:100D100090FE641C20780028F0D170BD004800408F
:100D20004FF04070E1EE100A704700004C0D0008D3
:100D30000000002024000000C4010008700D00081D
:100D40002400002074060000E001000800000000FC
:100D50000000000000000000000000000000000093
:100D60000000000001020304010203040607080951
:0400000508000229C4
:00000001FF
