:020000040800F2
:10000000800600202902000831020008330200089F
:10001000350200083702000839020008000000001D
:100020000000000000000000000000003B0200088B
:100030003D020008000000003F02000841020008E5
:10004000430200084302000843020008430200087C
:100050004302000843020008DD02000843020008D2
:10006000FD0200081D0300083D03000843020008CC
:10007000430200084302000843020008430200084C
:10008000430200084302000843020008430200083C
:10009000430200084302000843020008430200082C
:1000A000430200084302000843020008430200081C
:1000B0004302000811070008430200084302000839
:1000C00043020008430200084302000843020008FC
:1000D00043020008430200084302000843020008EC
:1000E00043020008430200084302000843020008DC
:1000F00043020008430200084302000843020008CC
:1001000043020008430200084302000843020008BB
:1001100043020008430200084302000843020008AB
:10012000430200084302000843020008430200089B
:10013000430200084302000843020008430200088B
:10014000430200084302000843020008430200087B
:10015000430200084302000843020008430200086B
:10016000430200084302000843020008430200085B
:10017000430200084302000843020008430200084B
:10018000430200084302000800F002F800F03CF8C7
:100190000AA090E8000C82448344AAF10107DA45E2
:1001A00001D100F031F8AFF2090EBAE80F0013F0F8
:1001B000010F18BFFB1A43F001031847A408000001
:1001C000C4080000103A24BF78C878C1FAD8520792
:1001D00024BF30C830C144BF04680C6070470000C1
:1001E0000023002400250026103A28BF78C1FBD840
:1001F000520728BF30C148BF0B6070471FB500F0E1
:1002000029FC1FBD10B510BD00F031F81146FFF7F5
:10021000F5FF00F0AFFB00F04FF803B4FFF7F2FF7B
:1002200003BC00F053F80000094880470948004724
:10023000FEE7FEE7FEE7FEE7FEE7FEE7FEE7FEE796
:10024000FEE7FEE704480549054A064B70470000F3
:10025000A90600088901000880000020800600200F
:10026000800200208002002070477047704775466A
:1002700000F028F8AE4605006946534620F0070016
:10028000854618B020B5FFF7DDFFBDE820404FF0F0
:1002900000064FF000074FF000084FF0000B21F070
:1002A0000701AC46ACE8C009ACE8C009ACE8C0093D
:1002B000ACE8C0098D4670470446AFF30080204685
:1002C000FFF7ABFF004870472000002001491820CD
:1002D000ABBEFEE7260002007047000010B501200B
:1002E00000F042F8012806D10121034800F05DFA30
:1002F000012000F033F810BD0004004010B50420C8
:1003000000F032F8012806D10121034800F04DFA2F
:10031000042000F023F810BD0004004010B50820B0
:1003200000F022F8012806D10121034800F03DFA2F
:10033000082000F013F810BD0004004010B5102094
:1003400000F012F8012806D10121034800F02DFA2F
:10035000102000F003F810BD0004004001490860BF
:1003600070470000143C014001460020034A126817
:100370000A400AB1012000E000207047143C01400F
:10038000002123498279002A3AD00A46126803687C
:100390009A430B461A600A1D126803689A430B1DA4
:1003A0001A60027911440A6803681A430A60184AFD
:1003B0000832126803689A43154B08331A601A1DF5
:1003C000126803689A43124B0C331A604279102A60
:1003D0000ED11A1F126803681A430D4B08331A60B6
:1003E0001A1D126803681A43094B0C331A600DE09A
:1003F0000749427911440A6803681A430A6005E014
:10040000027911440A6803689A430A607047000041
:10041000003C0140F0B50A4600210023002400BF43
:100420003DE0012505FA01F3156805EA03049C4245
:1004300034D105684F000326BE40B54305601579E9
:100440004E00B5400668354305601579012D02D090
:100450001579022D16D185684F000326BE40B5439D
:10046000856055794E00B54086683543856045689E
:1004700001268E40B5434560456896798E40B6B2F8
:1004800035434560C5684F000326BE40B543C5608F
:10049000D5794E00B540C6683543C560491C102962
:1004A000BFD3F0BD70B5002100230F22C4781CB368
:1004B000174C246804F4E064C4F5E064C4F3072135
:1004C000C1F10404E3B20A4144789C40E1B284786B
:1004D000144021430C07210E0E4C05786155047819
:1004E00004F01F050124AC4005786D11AD0005F145
:1004F000E025C5F8004109E0047804F01F05012457
:10050000AC40054D0678761145F8264070BD0000D8
:100510000CED00E000E400E080E100E029B1064AD3
:1005200012680243044B1A6004E0034A12688243D3
:10053000014B1A60704700003038024029B1064A6A
:1005400012680243044B1A6004E0034A12688243B3
:10055000014B1A60704700004038024029B1064A3A
:1005600012680243044B1A6004E0034A1268824393
:10057000014B1A60704700004438024030B5002239
:100580008B071C0F0F2303FA04F20B4B8C1053F84C
:1005900024309343084C8D1044F8253023468C10AA
:1005A00053F824308C07240F00FA04F42343024C40
:1005B0008D1044F8253030BD083801400CB50020BE
:1005C000019000903448006840F48030324908605F
:1005D00000BF3148006800F4003000900198401CD2
:1005E0000190009818B90198B0F5A04FF1D12A48B0
:1005F000006800F4003010B10120009001E00020FC
:1006000000900098012846D123484030006840F00F
:1006100080502149403108602048006840F4404043
:100620001E4908601C48083000681B4908310860F2
:100630000846006840F4004008600846006840F43E
:10064000A05008601648091F0860081F006840F0A5
:100650008070091F086000BF0F48006800F000703C
:100660000028F9D040F205700E4908600A480830A9
:10067000006820F003000849083108600846006857
:1006800040F00200086000BF03480830006800F036
:100690000C000828F8D10CBD003802400070004062
:1006A00008544007003C024010B51548006840F46B
:1006B0007000134908601348006840F001001149B8
:1006C000086000200F49083108600E4800680E4994
:1006D00008400C4908600D48091D0860081F0068A3
:1006E00020F48020091F0860002006490C310860B2
:1006F000FFF764FF4FF0006001498039086010BDCA
:1007000088ED00E000380240FFFFF6FE10300024C4
:1007100010B501211D4800F054F8012834D11C48BF
:10072000006830B91B48006880F001001A49C1F820
:10073000A4021A48006838B91648001D006880F005
:1007400001001549C1F8A8021448001D006838B915
:100750001248AC30006880F001001149C1F8B402C1
:100760000E480830006838B90C48B030006880F096
:1007700001000B49C1F8B8020021044800F015F847
:100780000121024800F00EF810BD000000040040F6
:1007900000024042A4824242008042420802424299
:1007A00000004242CA430282704721B1028842F0EF
:1007B0000102028004E002884FF6FE731A400280B4
:1007C000704730B50246002000230024158A05EA50
:1007D0000103958905EA010413B10CB1012000E081
:1007E000002030BD1AB183890B43838102E08389E5
:1007F0008B4383817047000000220288184B984287
:100800000ED0184B98420BD0B0F1804F08D0164B49
:10081000984205D0154B984202D0154B984204D10E
:100820004FF68F731A404B881A43124B984207D0E9
:10083000114B984204D04FF6FF431A400B891A43DC
:1008400002804B68C3620B880385054B984202D037
:10085000044B984201D18B7A03860123838270472F
:100860000000014000040140000400400008004076
:10087000000C0040001000400014004010B50121A1
:100880000846FFF74BFE01211020FFF747FE01212C
:100890008803FFF763FE01203149086000200871DA
:1008A0000320487100208871C8712E48FFF7B2FDFF
:1008B0001C202B490860002008710320487100208B
:1008C000C8712948FFF7A6FD00210846FFF756FE2C
:1008D00002210420FFF752FE03210420FFF74EFE01
:1008E00004210846FFF74AFE1D2020490860002029
:1008F00008710C204871012088710846FFF740FDFF
:1009000006201B490870012048700F2088700120C4
:10091000C8700846FFF7C6FD082015490870022078
:10092000487001208870C8700846FFF7BBFD092099
:100930000F49087003204870022088700120C87099
:100940000846FFF7AFFD0A200949087004204870E7
:10095000032088700120C8700846FFF7A3FD10BD72
:1009600000000020000002400010024008000020AB
:100970001000002001212020FFF7D0FD01211020D0
:10098000FFF7CCFDFFF77AFF00F03AF84FF4C060B4
:100990001449086001200871002088710320487103
:1009A0000020C8711048FFF735FD4FF4C0400D49D5
:1009B0000860012008710020887103204871002020
:1009C000C8710A48FFF726FD012009490860094956
:1009D000C1F8A802084908600849C1F8B80200BF78
:1009E000FEE700000000002000140240001002405A
:1009F000A482424200804242B4024242000042428B
:100A000010B501210220FFF799FD40F2F3100E49C5
:100A1000486042F2CF0008800020088148800B48DF
:100A2000FFF7EAFE012211460848FFF7DBFE1D2012
:100A3000074908700020487001208870C870084677
:100A4000FFF730FD10BD000014000020000400403E
:100A5000100000204FF04070E1EE100A70470000D7
:100A6000800A00080000002014000000C4010008F3
:100A7000940A0008140000206C060000E001000841
:100A80000000000000000000000000000000000066
:040A90000000000062
:0400000508000229C4
:00000001FF
