:020000040800F2
:10000000900600202902000831020008330200088F
:10001000350200083702000839020008000000001D
:100020000000000000000000000000003B0200088B
:100030003D020008000000003F02000841020008E5
:10004000430200084302000843020008430200087C
:10005000430200084302000843020008430200086C
:10006000430200084302000843020008430200085C
:10007000430200084302000843020008430200084C
:10008000430200084302000843020008430200083C
:10009000430200084302000843020008430200082C
:1000A000430200084302000843020008430200081C
:1000B000430200084302000843020008430200080C
:1000C00043020008430200084302000843020008FC
:1000D00043020008430200084302000843020008EC
:1000E00043020008430200084302000843020008DC
:1000F00043020008430200084302000843020008CC
:1001000043020008430200084302000843020008BB
:1001100043020008430200084302000843020008AB
:10012000430200084302000843020008430200089B
:10013000430200084302000843020008430200088B
:10014000430200084302000843020008430200087B
:10015000430200084302000843020008430200086B
:10016000430200084302000843020008430200085B
:10017000430200084302000843020008430200084B
:10018000430200084302000800F002F800F03CF8C7
:100190000AA090E8000C82448344AAF10107DA45E2
:1001A00001D100F031F8AFF2090EBAE80F0013F0F8
:1001B000010F18BFFB1A43F0010318473805000070
:1001C00058050000103A24BF78C878C1FAD8520701
:1001D00024BF30C830C144BF04680C6070470000C1
:1001E0000023002400250026103A28BF78C1FBD840
:1001F000520728BF30C148BF0B6070471FB500F0E1
:1002000073FA1FBD10B510BD00F031F81146FFF7AD
:10021000F5FF00F023FA00F04FF803B4FFF7F2FF08
:1002200003BC00F053F80000094880470948004724
:10023000FEE7FEE7FEE7FEE7FEE7FEE7FEE7FEE796
:10024000FEE7FEE704480549054A064B70470000F3
:10025000DD040008890100089000002090060020BD
:10026000900200209002002070477047704775464A
:1002700000F028F8AE4605006946534620F0070016
:10028000854618B020B5FFF7DDFFBDE820404FF0F0
:1002900000064FF000074FF000084FF0000B21F070
:1002A0000701AC46ACE8C009ACE8C009ACE8C0093D
:1002B000ACE8C0098D4670470446AFF30080204685
:1002C000FFF7ABFF004870472C00002001491820C1
:1002D000ABBEFEE7260002007047F0B50A460021DB
:1002E0000023002400BF3DE0012505FA01F3156855
:1002F00005EA03049C4234D105684F000326BE4042
:10030000B543056015794E00B54006683543056074
:100310001579012D02D01579022D16D185684F006F
:100320000326BE40B543856055794E00B5408668CA
:1003300035438560456801268E40B5434560456874
:1003400096798E40B6B235434560C5684F000326A6
:10035000BE40B543C560D5794E00B540C66835434B
:10036000C560491C1029BFD3F0BDF0B5002300249F
:100370004D07ED0E02FA05F3CE1000F1200555F8F9
:1003800026504E07F70E0F26BE40B543CF1000F1A2
:10039000200646F82750CE1000F1200555F82650CB
:1003A00045EA0304CE1000F1200545F82640F0BDD3
:1003B00029B1064A12680243044B1A6004E0034A5A
:1003C00012688243014B1A607047000030380240C7
:1003D00029B1064A12680243044B1A6004E0034A3A
:1003E00012688243014B1A60704700004038024097
:1003F0000CB50020019000903448006840F4803033
:100400003249086000BF3148006800F400300090B5
:100410000198401C0190009818B90198B0F5A04FC0
:10042000F1D12A48006800F4003010B1012000909A
:1004300001E0002000900098012846D12348403078
:10044000006840F080502149403108602048006831
:1004500040F440401E4908601C48083000681B49B1
:10046000083108600846006840F40040086008460B
:10047000006840F4A05008601648091F0860081F73
:10048000006840F08070091F086000BF0F480068D6
:1004900000F000700028F9D040F205700E490860A5
:1004A0000A480830006820F0030008490831086055
:1004B0000846006840F00200086000BF03480830AA
:1004C000006800F00C000828F8D10CBD003802408C
:1004D0000070004008544007003C024010B5154829
:1004E000006840F47000134908601348006840F049
:1004F00001001149086000200F49083108600E48CA
:1005000000680E4908400C4908600D48091D086044
:10051000081F006820F48020091F08600020064999
:100520000C310860FFF764FF4FF00060014980392B
:10053000086010BD88ED00E000380240FFFFF6FEC5
:100540001030002421B1028842F00102028004E050
:1005500002884FF6FE731A400280704770B500247F
:1005600000220023058C4FF6FE7635400584028C70
:100570008388048B4FF68F752C40B51E2C400D8858
:100580002C43751E2A408D892A434D882A43104DDD
:10059000A84202D00F4DA84213D14FF6F7752A405A
:1005A000CD892A434FF6FB752A408D882A434FF6A2
:1005B000FF652B404FF6FF552B400D8A2B434D8A8C
:1005C0002B43838004838D684563028470BD0000E3
:1005D000000001400004014000220288184B9842AC
:1005E0000ED0184B98420BD0B0F1804F08D0164B6C
:1005F000984205D0154B984202D0154B984204D131
:100600004FF68F731A404B881A43124B984207D00B
:10061000114B984204D04FF6FF431A400B891A43FE
:1006200002804B68C3620B880385054B984202D059
:10063000044B984201D18B7A038601238382704751
:100640000000014000040140000400400008004098
:10065000000C004000100040001400400121202048
:10066000FFF7A6FE02200A49087100020860002078
:1006700088714871C8710748FFF72FFE092211469B
:100680000448FFF772FE00F007F800BFFEE7000025
:10069000000000200014024010B501210802FFF7FD
:1006A00097FE63200D49486042F2CF000880002089
:1006B00048800B48FFF790FF60200A49088001201E
:1006C00048805F208860002088810548FFF746FF4A
:1006D00001210348FFF736FF10BD00000C00002089
:1006E00000200040180000204FF04070E1EE100A9A
:1006F0007047000014070008000000200C000000F4
:10070000C4010008200700080C0000208406000037
:10071000E0010008000000000000000000000000F0
:0400000508000229C4
:00000001FF
